{
	"contracts/Donation.sol": {
		"Donation": {
			"abi": [
				{
					"inputs": [],
					"stateMutability": "nonpayable",
					"type": "constructor"
				},
				{
					"anonymous": false,
					"inputs": [
						{
							"indexed": false,
							"internalType": "address",
							"name": "donateur",
							"type": "address"
						},
						{
							"indexed": false,
							"internalType": "uint256",
							"name": "montant",
							"type": "uint256"
						}
					],
					"name": "DonationRecue",
					"type": "event"
				},
				{
					"anonymous": false,
					"inputs": [
						{
							"indexed": false,
							"internalType": "address",
							"name": "owner",
							"type": "address"
						},
						{
							"indexed": false,
							"internalType": "uint256",
							"name": "montant",
							"type": "uint256"
						}
					],
					"name": "RetraitEffectue",
					"type": "event"
				},
				{
					"anonymous": false,
					"inputs": [
						{
							"indexed": false,
							"internalType": "address",
							"name": "expediteur",
							"type": "address"
						},
						{
							"indexed": false,
							"internalType": "address",
							"name": "destinataire",
							"type": "address"
						},
						{
							"indexed": false,
							"internalType": "uint256",
							"name": "montant",
							"type": "uint256"
						}
					],
					"name": "VirementEffectue",
					"type": "event"
				},
				{
					"inputs": [],
					"name": "donate",
					"outputs": [],
					"stateMutability": "payable",
					"type": "function"
				},
				{
					"inputs": [],
					"name": "getBalance",
					"outputs": [
						{
							"internalType": "uint256",
							"name": "",
							"type": "uint256"
						}
					],
					"stateMutability": "view",
					"type": "function"
				},
				{
					"inputs": [],
					"name": "getBalanceInUSD",
					"outputs": [
						{
							"internalType": "uint256",
							"name": "",
							"type": "uint256"
						}
					],
					"stateMutability": "view",
					"type": "function"
				},
				{
					"inputs": [],
					"name": "getEthUsdPrice",
					"outputs": [
						{
							"internalType": "int256",
							"name": "",
							"type": "int256"
						}
					],
					"stateMutability": "view",
					"type": "function"
				},
				{
					"inputs": [],
					"name": "owner",
					"outputs": [
						{
							"internalType": "address",
							"name": "",
							"type": "address"
						}
					],
					"stateMutability": "view",
					"type": "function"
				},
				{
					"inputs": [
						{
							"internalType": "address payable",
							"name": "destinataire",
							"type": "address"
						},
						{
							"internalType": "uint256",
							"name": "montant",
							"type": "uint256"
						}
					],
					"name": "transferTo",
					"outputs": [],
					"stateMutability": "nonpayable",
					"type": "function"
				},
				{
					"inputs": [],
					"name": "withdraw",
					"outputs": [],
					"stateMutability": "nonpayable",
					"type": "function"
				}
			],
			"devdoc": {
				"kind": "dev",
				"methods": {},
				"version": 1
			},
			"evm": {
				"assembly": "    /* \"contracts/Donation.sol\":188:3343  contract Donation {... */\n  mstore(0x40, 0x80)\n    /* \"contracts/Donation.sol\":501:639  constructor() {... */\n  callvalue\n  dup1\n  iszero\n  tag_1\n  jumpi\n  revert(0x00, 0x00)\ntag_1:\n  pop\n    /* \"contracts/Donation.sol\":534:544  msg.sender */\n  caller\n    /* \"contracts/Donation.sol\":526:531  owner */\n  0x01\n  0x00\n    /* \"contracts/Donation.sol\":526:544  owner = msg.sender */\n  0x0100\n  exp\n  dup2\n  sload\n  dup2\n  0xffffffffffffffffffffffffffffffffffffffff\n  mul\n  not\n  and\n  swap1\n  dup4\n  0xffffffffffffffffffffffffffffffffffffffff\n  and\n  mul\n  or\n  swap1\n  sstore\n  pop\n    /* \"contracts/Donation.sol\":588:630  0x694AA1769357215DE4FAC081bf1f309aDC325306 */\n  0x694aa1769357215de4fac081bf1f309adc325306\n    /* \"contracts/Donation.sol\":555:563  dataFeed */\n  0x00\n  0x00\n    /* \"contracts/Donation.sol\":555:631  dataFeed = AggregatorV3Interface(0x694AA1769357215DE4FAC081bf1f309aDC325306) */\n  0x0100\n  exp\n  dup2\n  sload\n  dup2\n  0xffffffffffffffffffffffffffffffffffffffff\n  mul\n  not\n  and\n  swap1\n  dup4\n  0xffffffffffffffffffffffffffffffffffffffff\n  and\n  mul\n  or\n  swap1\n  sstore\n  pop\n    /* \"contracts/Donation.sol\":188:3343  contract Donation {... */\n  dataSize(sub_0)\n  dup1\n  dataOffset(sub_0)\n  0x00\n  codecopy\n  0x00\n  return\nstop\n\nsub_0: assembly {\n        /* \"contracts/Donation.sol\":188:3343  contract Donation {... */\n      mstore(0x40, 0x80)\n      jumpi(tag_1, lt(calldatasize, 0x04))\n      shr(0xe0, calldataload(0x00))\n      dup1\n      0x8da5cb5b\n      gt\n      tag_9\n      jumpi\n      dup1\n      0x8da5cb5b\n      eq\n      tag_5\n      jumpi\n      dup1\n      0xa0a8045e\n      eq\n      tag_6\n      jumpi\n      dup1\n      0xed88c68e\n      eq\n      tag_7\n      jumpi\n      dup1\n      0xef649249\n      eq\n      tag_8\n      jumpi\n      jump(tag_1)\n    tag_9:\n      dup1\n      0x12065fe0\n      eq\n      tag_2\n      jumpi\n      dup1\n      0x2ccb1b30\n      eq\n      tag_3\n      jumpi\n      dup1\n      0x3ccfd60b\n      eq\n      tag_4\n      jumpi\n    tag_1:\n      revert(0x00, 0x00)\n        /* \"contracts/Donation.sol\":1652:1751  function getBalance() public view returns (uint256) {... */\n    tag_2:\n      callvalue\n      dup1\n      iszero\n      tag_10\n      jumpi\n      revert(0x00, 0x00)\n    tag_10:\n      pop\n      tag_11\n      tag_12\n      jump\t// in\n    tag_11:\n      mload(0x40)\n      tag_13\n      swap2\n      swap1\n      tag_14\n      jump\t// in\n    tag_13:\n      mload(0x40)\n      dup1\n      swap2\n      sub\n      swap1\n      return\n        /* \"contracts/Donation.sol\":1200:1644  function transferTo(address payable destinataire, uint256 montant) public onlyOwner {... */\n    tag_3:\n      callvalue\n      dup1\n      iszero\n      tag_15\n      jumpi\n      revert(0x00, 0x00)\n    tag_15:\n      pop\n      tag_16\n      0x04\n      dup1\n      calldatasize\n      sub\n      dup2\n      add\n      swap1\n      tag_17\n      swap2\n      swap1\n      tag_18\n      jump\t// in\n    tag_17:\n      tag_19\n      jump\t// in\n    tag_16:\n      stop\n        /* \"contracts/Donation.sol\":960:1192  function withdraw() public onlyOwner {... */\n    tag_4:\n      callvalue\n      dup1\n      iszero\n      tag_20\n      jumpi\n      revert(0x00, 0x00)\n    tag_20:\n      pop\n      tag_21\n      tag_22\n      jump\t// in\n    tag_21:\n      stop\n        /* \"contracts/Donation.sol\":261:281  address public owner */\n    tag_5:\n      callvalue\n      dup1\n      iszero\n      tag_23\n      jumpi\n      revert(0x00, 0x00)\n    tag_23:\n      pop\n      tag_24\n      tag_25\n      jump\t// in\n    tag_24:\n      mload(0x40)\n      tag_26\n      swap2\n      swap1\n      tag_27\n      jump\t// in\n    tag_26:\n      mload(0x40)\n      dup1\n      swap2\n      sub\n      swap1\n      return\n        /* \"contracts/Donation.sol\":1981:2301  function getEthUsdPrice() public view returns (int256) {... */\n    tag_6:\n      callvalue\n      dup1\n      iszero\n      tag_28\n      jumpi\n      revert(0x00, 0x00)\n    tag_28:\n      pop\n      tag_29\n      tag_30\n      jump\t// in\n    tag_29:\n      mload(0x40)\n      tag_31\n      swap2\n      swap1\n      tag_32\n      jump\t// in\n    tag_31:\n      mload(0x40)\n      dup1\n      swap2\n      sub\n      swap1\n      return\n        /* \"contracts/Donation.sol\":784:952  function donate() public payable {... */\n    tag_7:\n      tag_33\n      tag_34\n      jump\t// in\n    tag_33:\n      stop\n        /* \"contracts/Donation.sol\":2640:3340  function getBalanceInUSD() public view returns (uint256) {... */\n    tag_8:\n      callvalue\n      dup1\n      iszero\n      tag_35\n      jumpi\n      revert(0x00, 0x00)\n    tag_35:\n      pop\n      tag_36\n      tag_37\n      jump\t// in\n    tag_36:\n      mload(0x40)\n      tag_38\n      swap2\n      swap1\n      tag_14\n      jump\t// in\n    tag_38:\n      mload(0x40)\n      dup1\n      swap2\n      sub\n      swap1\n      return\n        /* \"contracts/Donation.sol\":1652:1751  function getBalance() public view returns (uint256) {... */\n    tag_12:\n        /* \"contracts/Donation.sol\":1695:1702  uint256 */\n      0x00\n        /* \"contracts/Donation.sol\":1722:1743  address(this).balance */\n      selfbalance\n        /* \"contracts/Donation.sol\":1715:1743  return address(this).balance */\n      swap1\n      pop\n        /* \"contracts/Donation.sol\":1652:1751  function getBalance() public view returns (uint256) {... */\n      swap1\n      jump\t// out\n        /* \"contracts/Donation.sol\":1200:1644  function transferTo(address payable destinataire, uint256 montant) public onlyOwner {... */\n    tag_19:\n        /* \"contracts/Donation.sol\":701:706  owner */\n      0x01\n      0x00\n      swap1\n      sload\n      swap1\n      0x0100\n      exp\n      swap1\n      div\n      0xffffffffffffffffffffffffffffffffffffffff\n      and\n        /* \"contracts/Donation.sol\":687:706  msg.sender == owner */\n      0xffffffffffffffffffffffffffffffffffffffff\n      and\n        /* \"contracts/Donation.sol\":687:697  msg.sender */\n      caller\n        /* \"contracts/Donation.sol\":687:706  msg.sender == owner */\n      0xffffffffffffffffffffffffffffffffffffffff\n      and\n      eq\n        /* \"contracts/Donation.sol\":679:756  require(msg.sender == owner, \"Seul le createur peut effectuer cette action.\") */\n      tag_41\n      jumpi\n      mload(0x40)\n      0x08c379a000000000000000000000000000000000000000000000000000000000\n      dup2\n      mstore\n      0x04\n      add\n      tag_42\n      swap1\n      tag_43\n      jump\t// in\n    tag_42:\n      mload(0x40)\n      dup1\n      swap2\n      sub\n      swap1\n      revert\n    tag_41:\n        /* \"contracts/Donation.sol\":1327:1328  0 */\n      0x00\n        /* \"contracts/Donation.sol\":1303:1329  destinataire != address(0) */\n      0xffffffffffffffffffffffffffffffffffffffff\n      and\n        /* \"contracts/Donation.sol\":1303:1315  destinataire */\n      dup3\n        /* \"contracts/Donation.sol\":1303:1329  destinataire != address(0) */\n      0xffffffffffffffffffffffffffffffffffffffff\n      and\n      sub\n        /* \"contracts/Donation.sol\":1295:1364  require(destinataire != address(0), \"Adresse destinataire invalide.\") */\n      tag_45\n      jumpi\n      mload(0x40)\n      0x08c379a000000000000000000000000000000000000000000000000000000000\n      dup2\n      mstore\n      0x04\n      add\n      tag_46\n      swap1\n      tag_47\n      jump\t// in\n    tag_46:\n      mload(0x40)\n      dup1\n      swap2\n      sub\n      swap1\n      revert\n    tag_45:\n        /* \"contracts/Donation.sol\":1393:1394  0 */\n      0x00\n        /* \"contracts/Donation.sol\":1383:1390  montant */\n      dup2\n        /* \"contracts/Donation.sol\":1383:1394  montant > 0 */\n      gt\n        /* \"contracts/Donation.sol\":1375:1437  require(montant > 0, \"Le montant doit etre superieur a zero.\") */\n      tag_48\n      jumpi\n      mload(0x40)\n      0x08c379a000000000000000000000000000000000000000000000000000000000\n      dup2\n      mstore\n      0x04\n      add\n      tag_49\n      swap1\n      tag_50\n      jump\t// in\n    tag_49:\n      mload(0x40)\n      dup1\n      swap2\n      sub\n      swap1\n      revert\n    tag_48:\n        /* \"contracts/Donation.sol\":1467:1488  address(this).balance */\n      selfbalance\n        /* \"contracts/Donation.sol\":1456:1463  montant */\n      dup2\n        /* \"contracts/Donation.sol\":1456:1488  montant <= address(this).balance */\n      gt\n      iszero\n        /* \"contracts/Donation.sol\":1448:1528  require(montant <= address(this).balance, \"Fonds insuffisants dans le contrat.\") */\n      tag_51\n      jumpi\n      mload(0x40)\n      0x08c379a000000000000000000000000000000000000000000000000000000000\n      dup2\n      mstore\n      0x04\n      add\n      tag_52\n      swap1\n      tag_53\n      jump\t// in\n    tag_52:\n      mload(0x40)\n      dup1\n      swap2\n      sub\n      swap1\n      revert\n    tag_51:\n        /* \"contracts/Donation.sol\":1539:1551  destinataire */\n      dup2\n        /* \"contracts/Donation.sol\":1539:1560  destinataire.transfer */\n      0xffffffffffffffffffffffffffffffffffffffff\n      and\n        /* \"contracts/Donation.sol\":1539:1569  destinataire.transfer(montant) */\n      0x08fc\n        /* \"contracts/Donation.sol\":1561:1568  montant */\n      dup3\n        /* \"contracts/Donation.sol\":1539:1569  destinataire.transfer(montant) */\n      swap1\n      dup2\n      iszero\n      mul\n      swap1\n      mload(0x40)\n      0x00\n      mload(0x40)\n      dup1\n      dup4\n      sub\n      dup2\n      dup6\n      dup9\n      dup9\n      call\n      swap4\n      pop\n      pop\n      pop\n      pop\n      iszero\n      dup1\n      iszero\n      tag_55\n      jumpi\n      returndatacopy(0x00, 0x00, returndatasize)\n      revert(0x00, returndatasize)\n    tag_55:\n      pop\n        /* \"contracts/Donation.sol\":1585:1636  VirementEffectue(msg.sender, destinataire, montant) */\n      0xb2e97275e79fa966fb7542763718c9cda606778a7d1140e16b935dd5bf872fc1\n        /* \"contracts/Donation.sol\":1602:1612  msg.sender */\n      caller\n        /* \"contracts/Donation.sol\":1614:1626  destinataire */\n      dup4\n        /* \"contracts/Donation.sol\":1628:1635  montant */\n      dup4\n        /* \"contracts/Donation.sol\":1585:1636  VirementEffectue(msg.sender, destinataire, montant) */\n      mload(0x40)\n      tag_56\n      swap4\n      swap3\n      swap2\n      swap1\n      tag_57\n      jump\t// in\n    tag_56:\n      mload(0x40)\n      dup1\n      swap2\n      sub\n      swap1\n      log1\n        /* \"contracts/Donation.sol\":1200:1644  function transferTo(address payable destinataire, uint256 montant) public onlyOwner {... */\n      pop\n      pop\n      jump\t// out\n        /* \"contracts/Donation.sol\":960:1192  function withdraw() public onlyOwner {... */\n    tag_22:\n        /* \"contracts/Donation.sol\":701:706  owner */\n      0x01\n      0x00\n      swap1\n      sload\n      swap1\n      0x0100\n      exp\n      swap1\n      div\n      0xffffffffffffffffffffffffffffffffffffffff\n      and\n        /* \"contracts/Donation.sol\":687:706  msg.sender == owner */\n      0xffffffffffffffffffffffffffffffffffffffff\n      and\n        /* \"contracts/Donation.sol\":687:697  msg.sender */\n      caller\n        /* \"contracts/Donation.sol\":687:706  msg.sender == owner */\n      0xffffffffffffffffffffffffffffffffffffffff\n      and\n      eq\n        /* \"contracts/Donation.sol\":679:756  require(msg.sender == owner, \"Seul le createur peut effectuer cette action.\") */\n      tag_59\n      jumpi\n      mload(0x40)\n      0x08c379a000000000000000000000000000000000000000000000000000000000\n      dup2\n      mstore\n      0x04\n      add\n      tag_60\n      swap1\n      tag_43\n      jump\t// in\n    tag_60:\n      mload(0x40)\n      dup1\n      swap2\n      sub\n      swap1\n      revert\n    tag_59:\n        /* \"contracts/Donation.sol\":1008:1021  uint256 solde */\n      0x00\n        /* \"contracts/Donation.sol\":1024:1045  address(this).balance */\n      selfbalance\n        /* \"contracts/Donation.sol\":1008:1045  uint256 solde = address(this).balance */\n      swap1\n      pop\n        /* \"contracts/Donation.sol\":1072:1073  0 */\n      0x00\n        /* \"contracts/Donation.sol\":1064:1069  solde */\n      dup2\n        /* \"contracts/Donation.sol\":1064:1073  solde > 0 */\n      gt\n        /* \"contracts/Donation.sol\":1056:1098  require(solde > 0, \"Le contrat est vide.\") */\n      tag_62\n      jumpi\n      mload(0x40)\n      0x08c379a000000000000000000000000000000000000000000000000000000000\n      dup2\n      mstore\n      0x04\n      add\n      tag_63\n      swap1\n      tag_64\n      jump\t// in\n    tag_63:\n      mload(0x40)\n      dup1\n      swap2\n      sub\n      swap1\n      revert\n    tag_62:\n        /* \"contracts/Donation.sol\":1117:1122  owner */\n      0x01\n      0x00\n      swap1\n      sload\n      swap1\n      0x0100\n      exp\n      swap1\n      div\n      0xffffffffffffffffffffffffffffffffffffffff\n      and\n        /* \"contracts/Donation.sol\":1109:1132  payable(owner).transfer */\n      0xffffffffffffffffffffffffffffffffffffffff\n      and\n        /* \"contracts/Donation.sol\":1109:1139  payable(owner).transfer(solde) */\n      0x08fc\n        /* \"contracts/Donation.sol\":1133:1138  solde */\n      dup3\n        /* \"contracts/Donation.sol\":1109:1139  payable(owner).transfer(solde) */\n      swap1\n      dup2\n      iszero\n      mul\n      swap1\n      mload(0x40)\n      0x00\n      mload(0x40)\n      dup1\n      dup4\n      sub\n      dup2\n      dup6\n      dup9\n      dup9\n      call\n      swap4\n      pop\n      pop\n      pop\n      pop\n      iszero\n      dup1\n      iszero\n      tag_66\n      jumpi\n      returndatacopy(0x00, 0x00, returndatasize)\n      revert(0x00, returndatasize)\n    tag_66:\n      pop\n        /* \"contracts/Donation.sol\":1155:1184  RetraitEffectue(owner, solde) */\n      0xb40a033b647769e777eeb1b0f4cc85773e4df8193b8347f4823ad8793b3d1c06\n        /* \"contracts/Donation.sol\":1171:1176  owner */\n      0x01\n      0x00\n      swap1\n      sload\n      swap1\n      0x0100\n      exp\n      swap1\n      div\n      0xffffffffffffffffffffffffffffffffffffffff\n      and\n        /* \"contracts/Donation.sol\":1178:1183  solde */\n      dup3\n        /* \"contracts/Donation.sol\":1155:1184  RetraitEffectue(owner, solde) */\n      mload(0x40)\n      tag_67\n      swap3\n      swap2\n      swap1\n      tag_68\n      jump\t// in\n    tag_67:\n      mload(0x40)\n      dup1\n      swap2\n      sub\n      swap1\n      log1\n        /* \"contracts/Donation.sol\":997:1192  {... */\n      pop\n        /* \"contracts/Donation.sol\":960:1192  function withdraw() public onlyOwner {... */\n      jump\t// out\n        /* \"contracts/Donation.sol\":261:281  address public owner */\n    tag_25:\n      0x01\n      0x00\n      swap1\n      sload\n      swap1\n      0x0100\n      exp\n      swap1\n      div\n      0xffffffffffffffffffffffffffffffffffffffff\n      and\n      dup2\n      jump\t// out\n        /* \"contracts/Donation.sol\":1981:2301  function getEthUsdPrice() public view returns (int256) {... */\n    tag_30:\n        /* \"contracts/Donation.sol\":2028:2034  int256 */\n      0x00\n        /* \"contracts/Donation.sol\":2097:2110  int256 answer */\n      0x00\n        /* \"contracts/Donation.sol\":2243:2251  dataFeed */\n      0x00\n      0x00\n      swap1\n      sload\n      swap1\n      0x0100\n      exp\n      swap1\n      div\n      0xffffffffffffffffffffffffffffffffffffffff\n      and\n        /* \"contracts/Donation.sol\":2243:2267  dataFeed.latestRoundData */\n      0xffffffffffffffffffffffffffffffffffffffff\n      and\n      0xfeaf968c\n        /* \"contracts/Donation.sol\":2243:2269  dataFeed.latestRoundData() */\n      mload(0x40)\n      dup2\n      0xffffffff\n      and\n      0xe0\n      shl\n      dup2\n      mstore\n      0x04\n      add\n      0xa0\n      mload(0x40)\n      dup1\n      dup4\n      sub\n      dup2\n      dup7\n      gas\n      staticcall\n      iszero\n      dup1\n      iszero\n      tag_71\n      jumpi\n      returndatacopy(0x00, 0x00, returndatasize)\n      revert(0x00, returndatasize)\n    tag_71:\n      pop\n      pop\n      pop\n      pop\n      mload(0x40)\n      returndatasize\n      not(0x1f)\n      0x1f\n      dup3\n      add\n      and\n      dup3\n      add\n      dup1\n      0x40\n      mstore\n      pop\n      dup2\n      add\n      swap1\n      tag_72\n      swap2\n      swap1\n      tag_73\n      jump\t// in\n    tag_72:\n        /* \"contracts/Donation.sol\":2047:2269  (... */\n      pop\n      pop\n      pop\n      swap2\n      pop\n      pop\n        /* \"contracts/Donation.sol\":2287:2293  answer */\n      dup1\n        /* \"contracts/Donation.sol\":2280:2293  return answer */\n      swap2\n      pop\n      pop\n        /* \"contracts/Donation.sol\":1981:2301  function getEthUsdPrice() public view returns (int256) {... */\n      swap1\n      jump\t// out\n        /* \"contracts/Donation.sol\":784:952  function donate() public payable {... */\n    tag_34:\n        /* \"contracts/Donation.sol\":848:849  0 */\n      0x00\n        /* \"contracts/Donation.sol\":836:845  msg.value */\n      callvalue\n        /* \"contracts/Donation.sol\":836:849  msg.value > 0 */\n      gt\n        /* \"contracts/Donation.sol\":828:892  require(msg.value > 0, \"Le montant doit etre superieur a zero.\") */\n      tag_75\n      jumpi\n      mload(0x40)\n      0x08c379a000000000000000000000000000000000000000000000000000000000\n      dup2\n      mstore\n      0x04\n      add\n      tag_76\n      swap1\n      tag_50\n      jump\t// in\n    tag_76:\n      mload(0x40)\n      dup1\n      swap2\n      sub\n      swap1\n      revert\n    tag_75:\n        /* \"contracts/Donation.sol\":908:944  DonationRecue(msg.sender, msg.value) */\n      0x702b21e3fca743bb7a6eb5352c1b2153dbff1dbd42d7a39d7bd0fc2d530f1d6c\n        /* \"contracts/Donation.sol\":922:932  msg.sender */\n      caller\n        /* \"contracts/Donation.sol\":934:943  msg.value */\n      callvalue\n        /* \"contracts/Donation.sol\":908:944  DonationRecue(msg.sender, msg.value) */\n      mload(0x40)\n      tag_77\n      swap3\n      swap2\n      swap1\n      tag_68\n      jump\t// in\n    tag_77:\n      mload(0x40)\n      dup1\n      swap2\n      sub\n      swap1\n      log1\n        /* \"contracts/Donation.sol\":784:952  function donate() public payable {... */\n      jump\t// out\n        /* \"contracts/Donation.sol\":2640:3340  function getBalanceInUSD() public view returns (uint256) {... */\n    tag_37:\n        /* \"contracts/Donation.sol\":2688:2695  uint256 */\n      0x00\n        /* \"contracts/Donation.sol\":2708:2723  int256 prixBrut */\n      0x00\n        /* \"contracts/Donation.sol\":2726:2742  getEthUsdPrice() */\n      tag_79\n        /* \"contracts/Donation.sol\":2726:2740  getEthUsdPrice */\n      tag_30\n        /* \"contracts/Donation.sol\":2726:2742  getEthUsdPrice() */\n      jump\t// in\n    tag_79:\n        /* \"contracts/Donation.sol\":2708:2742  int256 prixBrut = getEthUsdPrice() */\n      swap1\n      pop\n        /* \"contracts/Donation.sol\":2909:2910  0 */\n      0x00\n        /* \"contracts/Donation.sol\":2898:2906  prixBrut */\n      dup2\n        /* \"contracts/Donation.sol\":2898:2910  prixBrut > 0 */\n      sgt\n        /* \"contracts/Donation.sol\":2890:2936  require(prixBrut > 0, \"Prix oracle invalide.\") */\n      tag_80\n      jumpi\n      mload(0x40)\n      0x08c379a000000000000000000000000000000000000000000000000000000000\n      dup2\n      mstore\n      0x04\n      add\n      tag_81\n      swap1\n      tag_82\n      jump\t// in\n    tag_81:\n      mload(0x40)\n      dup1\n      swap2\n      sub\n      swap1\n      revert\n    tag_80:\n        /* \"contracts/Donation.sol\":2949:2961  uint256 prix */\n      0x00\n        /* \"contracts/Donation.sol\":2972:2980  prixBrut */\n      dup2\n        /* \"contracts/Donation.sol\":2949:2981  uint256 prix = uint256(prixBrut) */\n      swap1\n      pop\n        /* \"contracts/Donation.sol\":3217:3234  uint256 valeurUSD */\n      0x00\n        /* \"contracts/Donation.sol\":3270:3274  1e26 */\n      0x52b7d2dcc80cd2e4000000\n        /* \"contracts/Donation.sol\":3262:3266  prix */\n      dup3\n        /* \"contracts/Donation.sol\":3238:3259  address(this).balance */\n      selfbalance\n        /* \"contracts/Donation.sol\":3238:3266  address(this).balance * prix */\n      tag_83\n      swap2\n      swap1\n      tag_84\n      jump\t// in\n    tag_83:\n        /* \"contracts/Donation.sol\":3237:3274  (address(this).balance * prix) / 1e26 */\n      tag_85\n      swap2\n      swap1\n      tag_86\n      jump\t// in\n    tag_85:\n        /* \"contracts/Donation.sol\":3217:3274  uint256 valeurUSD = (address(this).balance * prix) / 1e26 */\n      swap1\n      pop\n        /* \"contracts/Donation.sol\":3294:3303  valeurUSD */\n      dup1\n        /* \"contracts/Donation.sol\":3287:3303  return valeurUSD */\n      swap4\n      pop\n      pop\n      pop\n      pop\n        /* \"contracts/Donation.sol\":2640:3340  function getBalanceInUSD() public view returns (uint256) {... */\n      swap1\n      jump\t// out\n        /* \"#utility.yul\":7:84   */\n    tag_87:\n        /* \"#utility.yul\":44:51   */\n      0x00\n        /* \"#utility.yul\":73:78   */\n      dup2\n        /* \"#utility.yul\":62:78   */\n      swap1\n      pop\n        /* \"#utility.yul\":7:84   */\n      swap2\n      swap1\n      pop\n      jump\t// out\n        /* \"#utility.yul\":90:208   */\n    tag_88:\n        /* \"#utility.yul\":177:201   */\n      tag_131\n        /* \"#utility.yul\":195:200   */\n      dup2\n        /* \"#utility.yul\":177:201   */\n      tag_87\n      jump\t// in\n    tag_131:\n        /* \"#utility.yul\":172:175   */\n      dup3\n        /* \"#utility.yul\":165:202   */\n      mstore\n        /* \"#utility.yul\":90:208   */\n      pop\n      pop\n      jump\t// out\n        /* \"#utility.yul\":214:436   */\n    tag_14:\n        /* \"#utility.yul\":307:311   */\n      0x00\n        /* \"#utility.yul\":345:347   */\n      0x20\n        /* \"#utility.yul\":334:343   */\n      dup3\n        /* \"#utility.yul\":330:348   */\n      add\n        /* \"#utility.yul\":322:348   */\n      swap1\n      pop\n        /* \"#utility.yul\":358:429   */\n      tag_133\n        /* \"#utility.yul\":426:427   */\n      0x00\n        /* \"#utility.yul\":415:424   */\n      dup4\n        /* \"#utility.yul\":411:428   */\n      add\n        /* \"#utility.yul\":402:408   */\n      dup5\n        /* \"#utility.yul\":358:429   */\n      tag_88\n      jump\t// in\n    tag_133:\n        /* \"#utility.yul\":214:436   */\n      swap3\n      swap2\n      pop\n      pop\n      jump\t// out\n        /* \"#utility.yul\":523:640   */\n    tag_90:\n        /* \"#utility.yul\":632:633   */\n      0x00\n        /* \"#utility.yul\":629:630   */\n      0x00\n        /* \"#utility.yul\":622:634   */\n      revert\n        /* \"#utility.yul\":769:895   */\n    tag_92:\n        /* \"#utility.yul\":806:813   */\n      0x00\n        /* \"#utility.yul\":846:888   */\n      0xffffffffffffffffffffffffffffffffffffffff\n        /* \"#utility.yul\":839:844   */\n      dup3\n        /* \"#utility.yul\":835:889   */\n      and\n        /* \"#utility.yul\":824:889   */\n      swap1\n      pop\n        /* \"#utility.yul\":769:895   */\n      swap2\n      swap1\n      pop\n      jump\t// out\n        /* \"#utility.yul\":901:1005   */\n    tag_93:\n        /* \"#utility.yul\":946:953   */\n      0x00\n        /* \"#utility.yul\":975:999   */\n      tag_139\n        /* \"#utility.yul\":993:998   */\n      dup3\n        /* \"#utility.yul\":975:999   */\n      tag_92\n      jump\t// in\n    tag_139:\n        /* \"#utility.yul\":964:999   */\n      swap1\n      pop\n        /* \"#utility.yul\":901:1005   */\n      swap2\n      swap1\n      pop\n      jump\t// out\n        /* \"#utility.yul\":1011:1149   */\n    tag_94:\n        /* \"#utility.yul\":1092:1124   */\n      tag_141\n        /* \"#utility.yul\":1118:1123   */\n      dup2\n        /* \"#utility.yul\":1092:1124   */\n      tag_93\n      jump\t// in\n    tag_141:\n        /* \"#utility.yul\":1085:1090   */\n      dup2\n        /* \"#utility.yul\":1082:1125   */\n      eq\n        /* \"#utility.yul\":1072:1143   */\n      tag_142\n      jumpi\n        /* \"#utility.yul\":1139:1140   */\n      0x00\n        /* \"#utility.yul\":1136:1137   */\n      0x00\n        /* \"#utility.yul\":1129:1141   */\n      revert\n        /* \"#utility.yul\":1072:1143   */\n    tag_142:\n        /* \"#utility.yul\":1011:1149   */\n      pop\n      jump\t// out\n        /* \"#utility.yul\":1155:1310   */\n    tag_95:\n        /* \"#utility.yul\":1209:1214   */\n      0x00\n        /* \"#utility.yul\":1247:1253   */\n      dup2\n        /* \"#utility.yul\":1234:1254   */\n      calldataload\n        /* \"#utility.yul\":1225:1254   */\n      swap1\n      pop\n        /* \"#utility.yul\":1263:1304   */\n      tag_144\n        /* \"#utility.yul\":1298:1303   */\n      dup2\n        /* \"#utility.yul\":1263:1304   */\n      tag_94\n      jump\t// in\n    tag_144:\n        /* \"#utility.yul\":1155:1310   */\n      swap3\n      swap2\n      pop\n      pop\n      jump\t// out\n        /* \"#utility.yul\":1316:1438   */\n    tag_96:\n        /* \"#utility.yul\":1389:1413   */\n      tag_146\n        /* \"#utility.yul\":1407:1412   */\n      dup2\n        /* \"#utility.yul\":1389:1413   */\n      tag_87\n      jump\t// in\n    tag_146:\n        /* \"#utility.yul\":1382:1387   */\n      dup2\n        /* \"#utility.yul\":1379:1414   */\n      eq\n        /* \"#utility.yul\":1369:1432   */\n      tag_147\n      jumpi\n        /* \"#utility.yul\":1428:1429   */\n      0x00\n        /* \"#utility.yul\":1425:1426   */\n      0x00\n        /* \"#utility.yul\":1418:1430   */\n      revert\n        /* \"#utility.yul\":1369:1432   */\n    tag_147:\n        /* \"#utility.yul\":1316:1438   */\n      pop\n      jump\t// out\n        /* \"#utility.yul\":1444:1583   */\n    tag_97:\n        /* \"#utility.yul\":1490:1495   */\n      0x00\n        /* \"#utility.yul\":1528:1534   */\n      dup2\n        /* \"#utility.yul\":1515:1535   */\n      calldataload\n        /* \"#utility.yul\":1506:1535   */\n      swap1\n      pop\n        /* \"#utility.yul\":1544:1577   */\n      tag_149\n        /* \"#utility.yul\":1571:1576   */\n      dup2\n        /* \"#utility.yul\":1544:1577   */\n      tag_96\n      jump\t// in\n    tag_149:\n        /* \"#utility.yul\":1444:1583   */\n      swap3\n      swap2\n      pop\n      pop\n      jump\t// out\n        /* \"#utility.yul\":1589:2079   */\n    tag_18:\n        /* \"#utility.yul\":1665:1671   */\n      0x00\n        /* \"#utility.yul\":1673:1679   */\n      0x00\n        /* \"#utility.yul\":1722:1724   */\n      0x40\n        /* \"#utility.yul\":1710:1719   */\n      dup4\n        /* \"#utility.yul\":1701:1708   */\n      dup6\n        /* \"#utility.yul\":1697:1720   */\n      sub\n        /* \"#utility.yul\":1693:1725   */\n      slt\n        /* \"#utility.yul\":1690:1809   */\n      iszero\n      tag_151\n      jumpi\n        /* \"#utility.yul\":1728:1807   */\n      tag_152\n      tag_90\n      jump\t// in\n    tag_152:\n        /* \"#utility.yul\":1690:1809   */\n    tag_151:\n        /* \"#utility.yul\":1848:1849   */\n      0x00\n        /* \"#utility.yul\":1873:1934   */\n      tag_153\n        /* \"#utility.yul\":1926:1933   */\n      dup6\n        /* \"#utility.yul\":1917:1923   */\n      dup3\n        /* \"#utility.yul\":1906:1915   */\n      dup7\n        /* \"#utility.yul\":1902:1924   */\n      add\n        /* \"#utility.yul\":1873:1934   */\n      tag_95\n      jump\t// in\n    tag_153:\n        /* \"#utility.yul\":1863:1934   */\n      swap3\n      pop\n        /* \"#utility.yul\":1819:1944   */\n      pop\n        /* \"#utility.yul\":1983:1985   */\n      0x20\n        /* \"#utility.yul\":2009:2062   */\n      tag_154\n        /* \"#utility.yul\":2054:2061   */\n      dup6\n        /* \"#utility.yul\":2045:2051   */\n      dup3\n        /* \"#utility.yul\":2034:2043   */\n      dup7\n        /* \"#utility.yul\":2030:2052   */\n      add\n        /* \"#utility.yul\":2009:2062   */\n      tag_97\n      jump\t// in\n    tag_154:\n        /* \"#utility.yul\":1999:2062   */\n      swap2\n      pop\n        /* \"#utility.yul\":1954:2072   */\n      pop\n        /* \"#utility.yul\":1589:2079   */\n      swap3\n      pop\n      swap3\n      swap1\n      pop\n      jump\t// out\n        /* \"#utility.yul\":2085:2181   */\n    tag_98:\n        /* \"#utility.yul\":2122:2129   */\n      0x00\n        /* \"#utility.yul\":2151:2175   */\n      tag_156\n        /* \"#utility.yul\":2169:2174   */\n      dup3\n        /* \"#utility.yul\":2151:2175   */\n      tag_92\n      jump\t// in\n    tag_156:\n        /* \"#utility.yul\":2140:2175   */\n      swap1\n      pop\n        /* \"#utility.yul\":2085:2181   */\n      swap2\n      swap1\n      pop\n      jump\t// out\n        /* \"#utility.yul\":2187:2305   */\n    tag_99:\n        /* \"#utility.yul\":2274:2298   */\n      tag_158\n        /* \"#utility.yul\":2292:2297   */\n      dup2\n        /* \"#utility.yul\":2274:2298   */\n      tag_98\n      jump\t// in\n    tag_158:\n        /* \"#utility.yul\":2269:2272   */\n      dup3\n        /* \"#utility.yul\":2262:2299   */\n      mstore\n        /* \"#utility.yul\":2187:2305   */\n      pop\n      pop\n      jump\t// out\n        /* \"#utility.yul\":2311:2533   */\n    tag_27:\n        /* \"#utility.yul\":2404:2408   */\n      0x00\n        /* \"#utility.yul\":2442:2444   */\n      0x20\n        /* \"#utility.yul\":2431:2440   */\n      dup3\n        /* \"#utility.yul\":2427:2445   */\n      add\n        /* \"#utility.yul\":2419:2445   */\n      swap1\n      pop\n        /* \"#utility.yul\":2455:2526   */\n      tag_160\n        /* \"#utility.yul\":2523:2524   */\n      0x00\n        /* \"#utility.yul\":2512:2521   */\n      dup4\n        /* \"#utility.yul\":2508:2525   */\n      add\n        /* \"#utility.yul\":2499:2505   */\n      dup5\n        /* \"#utility.yul\":2455:2526   */\n      tag_99\n      jump\t// in\n    tag_160:\n        /* \"#utility.yul\":2311:2533   */\n      swap3\n      swap2\n      pop\n      pop\n      jump\t// out\n        /* \"#utility.yul\":2539:2615   */\n    tag_100:\n        /* \"#utility.yul\":2575:2582   */\n      0x00\n        /* \"#utility.yul\":2604:2609   */\n      dup2\n        /* \"#utility.yul\":2593:2609   */\n      swap1\n      pop\n        /* \"#utility.yul\":2539:2615   */\n      swap2\n      swap1\n      pop\n      jump\t// out\n        /* \"#utility.yul\":2621:2736   */\n    tag_101:\n        /* \"#utility.yul\":2706:2729   */\n      tag_163\n        /* \"#utility.yul\":2723:2728   */\n      dup2\n        /* \"#utility.yul\":2706:2729   */\n      tag_100\n      jump\t// in\n    tag_163:\n        /* \"#utility.yul\":2701:2704   */\n      dup3\n        /* \"#utility.yul\":2694:2730   */\n      mstore\n        /* \"#utility.yul\":2621:2736   */\n      pop\n      pop\n      jump\t// out\n        /* \"#utility.yul\":2742:2960   */\n    tag_32:\n        /* \"#utility.yul\":2833:2837   */\n      0x00\n        /* \"#utility.yul\":2871:2873   */\n      0x20\n        /* \"#utility.yul\":2860:2869   */\n      dup3\n        /* \"#utility.yul\":2856:2874   */\n      add\n        /* \"#utility.yul\":2848:2874   */\n      swap1\n      pop\n        /* \"#utility.yul\":2884:2953   */\n      tag_165\n        /* \"#utility.yul\":2950:2951   */\n      0x00\n        /* \"#utility.yul\":2939:2948   */\n      dup4\n        /* \"#utility.yul\":2935:2952   */\n      add\n        /* \"#utility.yul\":2926:2932   */\n      dup5\n        /* \"#utility.yul\":2884:2953   */\n      tag_101\n      jump\t// in\n    tag_165:\n        /* \"#utility.yul\":2742:2960   */\n      swap3\n      swap2\n      pop\n      pop\n      jump\t// out\n        /* \"#utility.yul\":2966:3135   */\n    tag_102:\n        /* \"#utility.yul\":3050:3061   */\n      0x00\n        /* \"#utility.yul\":3084:3090   */\n      dup3\n        /* \"#utility.yul\":3079:3082   */\n      dup3\n        /* \"#utility.yul\":3072:3091   */\n      mstore\n        /* \"#utility.yul\":3124:3128   */\n      0x20\n        /* \"#utility.yul\":3119:3122   */\n      dup3\n        /* \"#utility.yul\":3115:3129   */\n      add\n        /* \"#utility.yul\":3100:3129   */\n      swap1\n      pop\n        /* \"#utility.yul\":2966:3135   */\n      swap3\n      swap2\n      pop\n      pop\n      jump\t// out\n        /* \"#utility.yul\":3141:3373   */\n    tag_103:\n        /* \"#utility.yul\":3281:3315   */\n      0x5365756c206c6520637265617465757220706575742065666665637475657220\n        /* \"#utility.yul\":3277:3278   */\n      0x00\n        /* \"#utility.yul\":3269:3275   */\n      dup3\n        /* \"#utility.yul\":3265:3279   */\n      add\n        /* \"#utility.yul\":3258:3316   */\n      mstore\n        /* \"#utility.yul\":3350:3365   */\n      0x636574746520616374696f6e2e00000000000000000000000000000000000000\n        /* \"#utility.yul\":3345:3347   */\n      0x20\n        /* \"#utility.yul\":3337:3343   */\n      dup3\n        /* \"#utility.yul\":3333:3348   */\n      add\n        /* \"#utility.yul\":3326:3366   */\n      mstore\n        /* \"#utility.yul\":3141:3373   */\n      pop\n      jump\t// out\n        /* \"#utility.yul\":3379:3745   */\n    tag_104:\n        /* \"#utility.yul\":3521:3524   */\n      0x00\n        /* \"#utility.yul\":3542:3609   */\n      tag_169\n        /* \"#utility.yul\":3606:3608   */\n      0x2d\n        /* \"#utility.yul\":3601:3604   */\n      dup4\n        /* \"#utility.yul\":3542:3609   */\n      tag_102\n      jump\t// in\n    tag_169:\n        /* \"#utility.yul\":3535:3609   */\n      swap2\n      pop\n        /* \"#utility.yul\":3618:3711   */\n      tag_170\n        /* \"#utility.yul\":3707:3710   */\n      dup3\n        /* \"#utility.yul\":3618:3711   */\n      tag_103\n      jump\t// in\n    tag_170:\n        /* \"#utility.yul\":3736:3738   */\n      0x40\n        /* \"#utility.yul\":3731:3734   */\n      dup3\n        /* \"#utility.yul\":3727:3739   */\n      add\n        /* \"#utility.yul\":3720:3739   */\n      swap1\n      pop\n        /* \"#utility.yul\":3379:3745   */\n      swap2\n      swap1\n      pop\n      jump\t// out\n        /* \"#utility.yul\":3751:4170   */\n    tag_43:\n        /* \"#utility.yul\":3917:3921   */\n      0x00\n        /* \"#utility.yul\":3955:3957   */\n      0x20\n        /* \"#utility.yul\":3944:3953   */\n      dup3\n        /* \"#utility.yul\":3940:3958   */\n      add\n        /* \"#utility.yul\":3932:3958   */\n      swap1\n      pop\n        /* \"#utility.yul\":4004:4013   */\n      dup2\n        /* \"#utility.yul\":3998:4002   */\n      dup2\n        /* \"#utility.yul\":3994:4014   */\n      sub\n        /* \"#utility.yul\":3990:3991   */\n      0x00\n        /* \"#utility.yul\":3979:3988   */\n      dup4\n        /* \"#utility.yul\":3975:3992   */\n      add\n        /* \"#utility.yul\":3968:4015   */\n      mstore\n        /* \"#utility.yul\":4032:4163   */\n      tag_172\n        /* \"#utility.yul\":4158:4162   */\n      dup2\n        /* \"#utility.yul\":4032:4163   */\n      tag_104\n      jump\t// in\n    tag_172:\n        /* \"#utility.yul\":4024:4163   */\n      swap1\n      pop\n        /* \"#utility.yul\":3751:4170   */\n      swap2\n      swap1\n      pop\n      jump\t// out\n        /* \"#utility.yul\":4176:4356   */\n    tag_105:\n        /* \"#utility.yul\":4316:4348   */\n      0x416472657373652064657374696e61746169726520696e76616c6964652e0000\n        /* \"#utility.yul\":4312:4313   */\n      0x00\n        /* \"#utility.yul\":4304:4310   */\n      dup3\n        /* \"#utility.yul\":4300:4314   */\n      add\n        /* \"#utility.yul\":4293:4349   */\n      mstore\n        /* \"#utility.yul\":4176:4356   */\n      pop\n      jump\t// out\n        /* \"#utility.yul\":4362:4728   */\n    tag_106:\n        /* \"#utility.yul\":4504:4507   */\n      0x00\n        /* \"#utility.yul\":4525:4592   */\n      tag_175\n        /* \"#utility.yul\":4589:4591   */\n      0x1e\n        /* \"#utility.yul\":4584:4587   */\n      dup4\n        /* \"#utility.yul\":4525:4592   */\n      tag_102\n      jump\t// in\n    tag_175:\n        /* \"#utility.yul\":4518:4592   */\n      swap2\n      pop\n        /* \"#utility.yul\":4601:4694   */\n      tag_176\n        /* \"#utility.yul\":4690:4693   */\n      dup3\n        /* \"#utility.yul\":4601:4694   */\n      tag_105\n      jump\t// in\n    tag_176:\n        /* \"#utility.yul\":4719:4721   */\n      0x20\n        /* \"#utility.yul\":4714:4717   */\n      dup3\n        /* \"#utility.yul\":4710:4722   */\n      add\n        /* \"#utility.yul\":4703:4722   */\n      swap1\n      pop\n        /* \"#utility.yul\":4362:4728   */\n      swap2\n      swap1\n      pop\n      jump\t// out\n        /* \"#utility.yul\":4734:5153   */\n    tag_47:\n        /* \"#utility.yul\":4900:4904   */\n      0x00\n        /* \"#utility.yul\":4938:4940   */\n      0x20\n        /* \"#utility.yul\":4927:4936   */\n      dup3\n        /* \"#utility.yul\":4923:4941   */\n      add\n        /* \"#utility.yul\":4915:4941   */\n      swap1\n      pop\n        /* \"#utility.yul\":4987:4996   */\n      dup2\n        /* \"#utility.yul\":4981:4985   */\n      dup2\n        /* \"#utility.yul\":4977:4997   */\n      sub\n        /* \"#utility.yul\":4973:4974   */\n      0x00\n        /* \"#utility.yul\":4962:4971   */\n      dup4\n        /* \"#utility.yul\":4958:4975   */\n      add\n        /* \"#utility.yul\":4951:4998   */\n      mstore\n        /* \"#utility.yul\":5015:5146   */\n      tag_178\n        /* \"#utility.yul\":5141:5145   */\n      dup2\n        /* \"#utility.yul\":5015:5146   */\n      tag_106\n      jump\t// in\n    tag_178:\n        /* \"#utility.yul\":5007:5146   */\n      swap1\n      pop\n        /* \"#utility.yul\":4734:5153   */\n      swap2\n      swap1\n      pop\n      jump\t// out\n        /* \"#utility.yul\":5159:5384   */\n    tag_107:\n        /* \"#utility.yul\":5299:5333   */\n      0x4c65206d6f6e74616e7420646f69742065747265207375706572696575722061\n        /* \"#utility.yul\":5295:5296   */\n      0x00\n        /* \"#utility.yul\":5287:5293   */\n      dup3\n        /* \"#utility.yul\":5283:5297   */\n      add\n        /* \"#utility.yul\":5276:5334   */\n      mstore\n        /* \"#utility.yul\":5368:5376   */\n      0x207a65726f2e0000000000000000000000000000000000000000000000000000\n        /* \"#utility.yul\":5363:5365   */\n      0x20\n        /* \"#utility.yul\":5355:5361   */\n      dup3\n        /* \"#utility.yul\":5351:5366   */\n      add\n        /* \"#utility.yul\":5344:5377   */\n      mstore\n        /* \"#utility.yul\":5159:5384   */\n      pop\n      jump\t// out\n        /* \"#utility.yul\":5390:5756   */\n    tag_108:\n        /* \"#utility.yul\":5532:5535   */\n      0x00\n        /* \"#utility.yul\":5553:5620   */\n      tag_181\n        /* \"#utility.yul\":5617:5619   */\n      0x26\n        /* \"#utility.yul\":5612:5615   */\n      dup4\n        /* \"#utility.yul\":5553:5620   */\n      tag_102\n      jump\t// in\n    tag_181:\n        /* \"#utility.yul\":5546:5620   */\n      swap2\n      pop\n        /* \"#utility.yul\":5629:5722   */\n      tag_182\n        /* \"#utility.yul\":5718:5721   */\n      dup3\n        /* \"#utility.yul\":5629:5722   */\n      tag_107\n      jump\t// in\n    tag_182:\n        /* \"#utility.yul\":5747:5749   */\n      0x40\n        /* \"#utility.yul\":5742:5745   */\n      dup3\n        /* \"#utility.yul\":5738:5750   */\n      add\n        /* \"#utility.yul\":5731:5750   */\n      swap1\n      pop\n        /* \"#utility.yul\":5390:5756   */\n      swap2\n      swap1\n      pop\n      jump\t// out\n        /* \"#utility.yul\":5762:6181   */\n    tag_50:\n        /* \"#utility.yul\":5928:5932   */\n      0x00\n        /* \"#utility.yul\":5966:5968   */\n      0x20\n        /* \"#utility.yul\":5955:5964   */\n      dup3\n        /* \"#utility.yul\":5951:5969   */\n      add\n        /* \"#utility.yul\":5943:5969   */\n      swap1\n      pop\n        /* \"#utility.yul\":6015:6024   */\n      dup2\n        /* \"#utility.yul\":6009:6013   */\n      dup2\n        /* \"#utility.yul\":6005:6025   */\n      sub\n        /* \"#utility.yul\":6001:6002   */\n      0x00\n        /* \"#utility.yul\":5990:5999   */\n      dup4\n        /* \"#utility.yul\":5986:6003   */\n      add\n        /* \"#utility.yul\":5979:6026   */\n      mstore\n        /* \"#utility.yul\":6043:6174   */\n      tag_184\n        /* \"#utility.yul\":6169:6173   */\n      dup2\n        /* \"#utility.yul\":6043:6174   */\n      tag_108\n      jump\t// in\n    tag_184:\n        /* \"#utility.yul\":6035:6174   */\n      swap1\n      pop\n        /* \"#utility.yul\":5762:6181   */\n      swap2\n      swap1\n      pop\n      jump\t// out\n        /* \"#utility.yul\":6187:6409   */\n    tag_109:\n        /* \"#utility.yul\":6327:6361   */\n      0x466f6e647320696e737566666973616e74732064616e73206c6520636f6e7472\n        /* \"#utility.yul\":6323:6324   */\n      0x00\n        /* \"#utility.yul\":6315:6321   */\n      dup3\n        /* \"#utility.yul\":6311:6325   */\n      add\n        /* \"#utility.yul\":6304:6362   */\n      mstore\n        /* \"#utility.yul\":6396:6401   */\n      0x61742e0000000000000000000000000000000000000000000000000000000000\n        /* \"#utility.yul\":6391:6393   */\n      0x20\n        /* \"#utility.yul\":6383:6389   */\n      dup3\n        /* \"#utility.yul\":6379:6394   */\n      add\n        /* \"#utility.yul\":6372:6402   */\n      mstore\n        /* \"#utility.yul\":6187:6409   */\n      pop\n      jump\t// out\n        /* \"#utility.yul\":6415:6781   */\n    tag_110:\n        /* \"#utility.yul\":6557:6560   */\n      0x00\n        /* \"#utility.yul\":6578:6645   */\n      tag_187\n        /* \"#utility.yul\":6642:6644   */\n      0x23\n        /* \"#utility.yul\":6637:6640   */\n      dup4\n        /* \"#utility.yul\":6578:6645   */\n      tag_102\n      jump\t// in\n    tag_187:\n        /* \"#utility.yul\":6571:6645   */\n      swap2\n      pop\n        /* \"#utility.yul\":6654:6747   */\n      tag_188\n        /* \"#utility.yul\":6743:6746   */\n      dup3\n        /* \"#utility.yul\":6654:6747   */\n      tag_109\n      jump\t// in\n    tag_188:\n        /* \"#utility.yul\":6772:6774   */\n      0x40\n        /* \"#utility.yul\":6767:6770   */\n      dup3\n        /* \"#utility.yul\":6763:6775   */\n      add\n        /* \"#utility.yul\":6756:6775   */\n      swap1\n      pop\n        /* \"#utility.yul\":6415:6781   */\n      swap2\n      swap1\n      pop\n      jump\t// out\n        /* \"#utility.yul\":6787:7206   */\n    tag_53:\n        /* \"#utility.yul\":6953:6957   */\n      0x00\n        /* \"#utility.yul\":6991:6993   */\n      0x20\n        /* \"#utility.yul\":6980:6989   */\n      dup3\n        /* \"#utility.yul\":6976:6994   */\n      add\n        /* \"#utility.yul\":6968:6994   */\n      swap1\n      pop\n        /* \"#utility.yul\":7040:7049   */\n      dup2\n        /* \"#utility.yul\":7034:7038   */\n      dup2\n        /* \"#utility.yul\":7030:7050   */\n      sub\n        /* \"#utility.yul\":7026:7027   */\n      0x00\n        /* \"#utility.yul\":7015:7024   */\n      dup4\n        /* \"#utility.yul\":7011:7028   */\n      add\n        /* \"#utility.yul\":7004:7051   */\n      mstore\n        /* \"#utility.yul\":7068:7199   */\n      tag_190\n        /* \"#utility.yul\":7194:7198   */\n      dup2\n        /* \"#utility.yul\":7068:7199   */\n      tag_110\n      jump\t// in\n    tag_190:\n        /* \"#utility.yul\":7060:7199   */\n      swap1\n      pop\n        /* \"#utility.yul\":6787:7206   */\n      swap2\n      swap1\n      pop\n      jump\t// out\n        /* \"#utility.yul\":7212:7272   */\n    tag_111:\n        /* \"#utility.yul\":7240:7243   */\n      0x00\n        /* \"#utility.yul\":7261:7266   */\n      dup2\n        /* \"#utility.yul\":7254:7266   */\n      swap1\n      pop\n        /* \"#utility.yul\":7212:7272   */\n      swap2\n      swap1\n      pop\n      jump\t// out\n        /* \"#utility.yul\":7278:7420   */\n    tag_112:\n        /* \"#utility.yul\":7328:7337   */\n      0x00\n        /* \"#utility.yul\":7361:7414   */\n      tag_193\n        /* \"#utility.yul\":7379:7413   */\n      tag_194\n        /* \"#utility.yul\":7388:7412   */\n      tag_195\n        /* \"#utility.yul\":7406:7411   */\n      dup5\n        /* \"#utility.yul\":7388:7412   */\n      tag_92\n      jump\t// in\n    tag_195:\n        /* \"#utility.yul\":7379:7413   */\n      tag_111\n      jump\t// in\n    tag_194:\n        /* \"#utility.yul\":7361:7414   */\n      tag_92\n      jump\t// in\n    tag_193:\n        /* \"#utility.yul\":7348:7414   */\n      swap1\n      pop\n        /* \"#utility.yul\":7278:7420   */\n      swap2\n      swap1\n      pop\n      jump\t// out\n        /* \"#utility.yul\":7426:7552   */\n    tag_113:\n        /* \"#utility.yul\":7476:7485   */\n      0x00\n        /* \"#utility.yul\":7509:7546   */\n      tag_197\n        /* \"#utility.yul\":7540:7545   */\n      dup3\n        /* \"#utility.yul\":7509:7546   */\n      tag_112\n      jump\t// in\n    tag_197:\n        /* \"#utility.yul\":7496:7546   */\n      swap1\n      pop\n        /* \"#utility.yul\":7426:7552   */\n      swap2\n      swap1\n      pop\n      jump\t// out\n        /* \"#utility.yul\":7558:7692   */\n    tag_114:\n        /* \"#utility.yul\":7616:7625   */\n      0x00\n        /* \"#utility.yul\":7649:7686   */\n      tag_199\n        /* \"#utility.yul\":7680:7685   */\n      dup3\n        /* \"#utility.yul\":7649:7686   */\n      tag_113\n      jump\t// in\n    tag_199:\n        /* \"#utility.yul\":7636:7686   */\n      swap1\n      pop\n        /* \"#utility.yul\":7558:7692   */\n      swap2\n      swap1\n      pop\n      jump\t// out\n        /* \"#utility.yul\":7698:7845   */\n    tag_115:\n        /* \"#utility.yul\":7793:7838   */\n      tag_201\n        /* \"#utility.yul\":7832:7837   */\n      dup2\n        /* \"#utility.yul\":7793:7838   */\n      tag_114\n      jump\t// in\n    tag_201:\n        /* \"#utility.yul\":7788:7791   */\n      dup3\n        /* \"#utility.yul\":7781:7839   */\n      mstore\n        /* \"#utility.yul\":7698:7845   */\n      pop\n      pop\n      jump\t// out\n        /* \"#utility.yul\":7851:8309   */\n    tag_57:\n        /* \"#utility.yul\":8008:8012   */\n      0x00\n        /* \"#utility.yul\":8046:8048   */\n      0x60\n        /* \"#utility.yul\":8035:8044   */\n      dup3\n        /* \"#utility.yul\":8031:8049   */\n      add\n        /* \"#utility.yul\":8023:8049   */\n      swap1\n      pop\n        /* \"#utility.yul\":8059:8130   */\n      tag_203\n        /* \"#utility.yul\":8127:8128   */\n      0x00\n        /* \"#utility.yul\":8116:8125   */\n      dup4\n        /* \"#utility.yul\":8112:8129   */\n      add\n        /* \"#utility.yul\":8103:8109   */\n      dup7\n        /* \"#utility.yul\":8059:8130   */\n      tag_99\n      jump\t// in\n    tag_203:\n        /* \"#utility.yul\":8140:8220   */\n      tag_204\n        /* \"#utility.yul\":8216:8218   */\n      0x20\n        /* \"#utility.yul\":8205:8214   */\n      dup4\n        /* \"#utility.yul\":8201:8219   */\n      add\n        /* \"#utility.yul\":8192:8198   */\n      dup6\n        /* \"#utility.yul\":8140:8220   */\n      tag_115\n      jump\t// in\n    tag_204:\n        /* \"#utility.yul\":8230:8302   */\n      tag_205\n        /* \"#utility.yul\":8298:8300   */\n      0x40\n        /* \"#utility.yul\":8287:8296   */\n      dup4\n        /* \"#utility.yul\":8283:8301   */\n      add\n        /* \"#utility.yul\":8274:8280   */\n      dup5\n        /* \"#utility.yul\":8230:8302   */\n      tag_88\n      jump\t// in\n    tag_205:\n        /* \"#utility.yul\":7851:8309   */\n      swap5\n      swap4\n      pop\n      pop\n      pop\n      pop\n      jump\t// out\n        /* \"#utility.yul\":8315:8485   */\n    tag_116:\n        /* \"#utility.yul\":8455:8477   */\n      0x4c6520636f6e747261742065737420766964652e000000000000000000000000\n        /* \"#utility.yul\":8451:8452   */\n      0x00\n        /* \"#utility.yul\":8443:8449   */\n      dup3\n        /* \"#utility.yul\":8439:8453   */\n      add\n        /* \"#utility.yul\":8432:8478   */\n      mstore\n        /* \"#utility.yul\":8315:8485   */\n      pop\n      jump\t// out\n        /* \"#utility.yul\":8491:8857   */\n    tag_117:\n        /* \"#utility.yul\":8633:8636   */\n      0x00\n        /* \"#utility.yul\":8654:8721   */\n      tag_208\n        /* \"#utility.yul\":8718:8720   */\n      0x14\n        /* \"#utility.yul\":8713:8716   */\n      dup4\n        /* \"#utility.yul\":8654:8721   */\n      tag_102\n      jump\t// in\n    tag_208:\n        /* \"#utility.yul\":8647:8721   */\n      swap2\n      pop\n        /* \"#utility.yul\":8730:8823   */\n      tag_209\n        /* \"#utility.yul\":8819:8822   */\n      dup3\n        /* \"#utility.yul\":8730:8823   */\n      tag_116\n      jump\t// in\n    tag_209:\n        /* \"#utility.yul\":8848:8850   */\n      0x20\n        /* \"#utility.yul\":8843:8846   */\n      dup3\n        /* \"#utility.yul\":8839:8851   */\n      add\n        /* \"#utility.yul\":8832:8851   */\n      swap1\n      pop\n        /* \"#utility.yul\":8491:8857   */\n      swap2\n      swap1\n      pop\n      jump\t// out\n        /* \"#utility.yul\":8863:9282   */\n    tag_64:\n        /* \"#utility.yul\":9029:9033   */\n      0x00\n        /* \"#utility.yul\":9067:9069   */\n      0x20\n        /* \"#utility.yul\":9056:9065   */\n      dup3\n        /* \"#utility.yul\":9052:9070   */\n      add\n        /* \"#utility.yul\":9044:9070   */\n      swap1\n      pop\n        /* \"#utility.yul\":9116:9125   */\n      dup2\n        /* \"#utility.yul\":9110:9114   */\n      dup2\n        /* \"#utility.yul\":9106:9126   */\n      sub\n        /* \"#utility.yul\":9102:9103   */\n      0x00\n        /* \"#utility.yul\":9091:9100   */\n      dup4\n        /* \"#utility.yul\":9087:9104   */\n      add\n        /* \"#utility.yul\":9080:9127   */\n      mstore\n        /* \"#utility.yul\":9144:9275   */\n      tag_211\n        /* \"#utility.yul\":9270:9274   */\n      dup2\n        /* \"#utility.yul\":9144:9275   */\n      tag_117\n      jump\t// in\n    tag_211:\n        /* \"#utility.yul\":9136:9275   */\n      swap1\n      pop\n        /* \"#utility.yul\":8863:9282   */\n      swap2\n      swap1\n      pop\n      jump\t// out\n        /* \"#utility.yul\":9288:9620   */\n    tag_68:\n        /* \"#utility.yul\":9409:9413   */\n      0x00\n        /* \"#utility.yul\":9447:9449   */\n      0x40\n        /* \"#utility.yul\":9436:9445   */\n      dup3\n        /* \"#utility.yul\":9432:9450   */\n      add\n        /* \"#utility.yul\":9424:9450   */\n      swap1\n      pop\n        /* \"#utility.yul\":9460:9531   */\n      tag_213\n        /* \"#utility.yul\":9528:9529   */\n      0x00\n        /* \"#utility.yul\":9517:9526   */\n      dup4\n        /* \"#utility.yul\":9513:9530   */\n      add\n        /* \"#utility.yul\":9504:9510   */\n      dup6\n        /* \"#utility.yul\":9460:9531   */\n      tag_99\n      jump\t// in\n    tag_213:\n        /* \"#utility.yul\":9541:9613   */\n      tag_214\n        /* \"#utility.yul\":9609:9611   */\n      0x20\n        /* \"#utility.yul\":9598:9607   */\n      dup4\n        /* \"#utility.yul\":9594:9612   */\n      add\n        /* \"#utility.yul\":9585:9591   */\n      dup5\n        /* \"#utility.yul\":9541:9613   */\n      tag_88\n      jump\t// in\n    tag_214:\n        /* \"#utility.yul\":9288:9620   */\n      swap4\n      swap3\n      pop\n      pop\n      pop\n      jump\t// out\n        /* \"#utility.yul\":9626:9731   */\n    tag_118:\n        /* \"#utility.yul\":9662:9669   */\n      0x00\n        /* \"#utility.yul\":9702:9724   */\n      0xffffffffffffffffffff\n        /* \"#utility.yul\":9695:9700   */\n      dup3\n        /* \"#utility.yul\":9691:9725   */\n      and\n        /* \"#utility.yul\":9680:9725   */\n      swap1\n      pop\n        /* \"#utility.yul\":9626:9731   */\n      swap2\n      swap1\n      pop\n      jump\t// out\n        /* \"#utility.yul\":9737:9857   */\n    tag_119:\n        /* \"#utility.yul\":9809:9832   */\n      tag_217\n        /* \"#utility.yul\":9826:9831   */\n      dup2\n        /* \"#utility.yul\":9809:9832   */\n      tag_118\n      jump\t// in\n    tag_217:\n        /* \"#utility.yul\":9802:9807   */\n      dup2\n        /* \"#utility.yul\":9799:9833   */\n      eq\n        /* \"#utility.yul\":9789:9851   */\n      tag_218\n      jumpi\n        /* \"#utility.yul\":9847:9848   */\n      0x00\n        /* \"#utility.yul\":9844:9845   */\n      0x00\n        /* \"#utility.yul\":9837:9849   */\n      revert\n        /* \"#utility.yul\":9789:9851   */\n    tag_218:\n        /* \"#utility.yul\":9737:9857   */\n      pop\n      jump\t// out\n        /* \"#utility.yul\":9863:10004   */\n    tag_120:\n        /* \"#utility.yul\":9919:9924   */\n      0x00\n        /* \"#utility.yul\":9950:9956   */\n      dup2\n        /* \"#utility.yul\":9944:9957   */\n      mload\n        /* \"#utility.yul\":9935:9957   */\n      swap1\n      pop\n        /* \"#utility.yul\":9966:9998   */\n      tag_220\n        /* \"#utility.yul\":9992:9997   */\n      dup2\n        /* \"#utility.yul\":9966:9998   */\n      tag_119\n      jump\t// in\n    tag_220:\n        /* \"#utility.yul\":9863:10004   */\n      swap3\n      swap2\n      pop\n      pop\n      jump\t// out\n        /* \"#utility.yul\":10010:10130   */\n    tag_121:\n        /* \"#utility.yul\":10082:10105   */\n      tag_222\n        /* \"#utility.yul\":10099:10104   */\n      dup2\n        /* \"#utility.yul\":10082:10105   */\n      tag_100\n      jump\t// in\n    tag_222:\n        /* \"#utility.yul\":10075:10080   */\n      dup2\n        /* \"#utility.yul\":10072:10106   */\n      eq\n        /* \"#utility.yul\":10062:10124   */\n      tag_223\n      jumpi\n        /* \"#utility.yul\":10120:10121   */\n      0x00\n        /* \"#utility.yul\":10117:10118   */\n      0x00\n        /* \"#utility.yul\":10110:10122   */\n      revert\n        /* \"#utility.yul\":10062:10124   */\n    tag_223:\n        /* \"#utility.yul\":10010:10130   */\n      pop\n      jump\t// out\n        /* \"#utility.yul\":10136:10277   */\n    tag_122:\n        /* \"#utility.yul\":10192:10197   */\n      0x00\n        /* \"#utility.yul\":10223:10229   */\n      dup2\n        /* \"#utility.yul\":10217:10230   */\n      mload\n        /* \"#utility.yul\":10208:10230   */\n      swap1\n      pop\n        /* \"#utility.yul\":10239:10271   */\n      tag_225\n        /* \"#utility.yul\":10265:10270   */\n      dup2\n        /* \"#utility.yul\":10239:10271   */\n      tag_121\n      jump\t// in\n    tag_225:\n        /* \"#utility.yul\":10136:10277   */\n      swap3\n      swap2\n      pop\n      pop\n      jump\t// out\n        /* \"#utility.yul\":10283:10426   */\n    tag_123:\n        /* \"#utility.yul\":10340:10345   */\n      0x00\n        /* \"#utility.yul\":10371:10377   */\n      dup2\n        /* \"#utility.yul\":10365:10378   */\n      mload\n        /* \"#utility.yul\":10356:10378   */\n      swap1\n      pop\n        /* \"#utility.yul\":10387:10420   */\n      tag_227\n        /* \"#utility.yul\":10414:10419   */\n      dup2\n        /* \"#utility.yul\":10387:10420   */\n      tag_96\n      jump\t// in\n    tag_227:\n        /* \"#utility.yul\":10283:10426   */\n      swap3\n      swap2\n      pop\n      pop\n      jump\t// out\n        /* \"#utility.yul\":10432:11403   */\n    tag_73:\n        /* \"#utility.yul\":10535:10541   */\n      0x00\n        /* \"#utility.yul\":10543:10549   */\n      0x00\n        /* \"#utility.yul\":10551:10557   */\n      0x00\n        /* \"#utility.yul\":10559:10565   */\n      0x00\n        /* \"#utility.yul\":10567:10573   */\n      0x00\n        /* \"#utility.yul\":10616:10619   */\n      0xa0\n        /* \"#utility.yul\":10604:10613   */\n      dup7\n        /* \"#utility.yul\":10595:10602   */\n      dup9\n        /* \"#utility.yul\":10591:10614   */\n      sub\n        /* \"#utility.yul\":10587:10620   */\n      slt\n        /* \"#utility.yul\":10584:10704   */\n      iszero\n      tag_229\n      jumpi\n        /* \"#utility.yul\":10623:10702   */\n      tag_230\n      tag_90\n      jump\t// in\n    tag_230:\n        /* \"#utility.yul\":10584:10704   */\n    tag_229:\n        /* \"#utility.yul\":10743:10744   */\n      0x00\n        /* \"#utility.yul\":10768:10831   */\n      tag_231\n        /* \"#utility.yul\":10823:10830   */\n      dup9\n        /* \"#utility.yul\":10814:10820   */\n      dup3\n        /* \"#utility.yul\":10803:10812   */\n      dup10\n        /* \"#utility.yul\":10799:10821   */\n      add\n        /* \"#utility.yul\":10768:10831   */\n      tag_120\n      jump\t// in\n    tag_231:\n        /* \"#utility.yul\":10758:10831   */\n      swap6\n      pop\n        /* \"#utility.yul\":10714:10841   */\n      pop\n        /* \"#utility.yul\":10880:10882   */\n      0x20\n        /* \"#utility.yul\":10906:10969   */\n      tag_232\n        /* \"#utility.yul\":10961:10968   */\n      dup9\n        /* \"#utility.yul\":10952:10958   */\n      dup3\n        /* \"#utility.yul\":10941:10950   */\n      dup10\n        /* \"#utility.yul\":10937:10959   */\n      add\n        /* \"#utility.yul\":10906:10969   */\n      tag_122\n      jump\t// in\n    tag_232:\n        /* \"#utility.yul\":10896:10969   */\n      swap5\n      pop\n        /* \"#utility.yul\":10851:10979   */\n      pop\n        /* \"#utility.yul\":11018:11020   */\n      0x40\n        /* \"#utility.yul\":11044:11108   */\n      tag_233\n        /* \"#utility.yul\":11100:11107   */\n      dup9\n        /* \"#utility.yul\":11091:11097   */\n      dup3\n        /* \"#utility.yul\":11080:11089   */\n      dup10\n        /* \"#utility.yul\":11076:11098   */\n      add\n        /* \"#utility.yul\":11044:11108   */\n      tag_123\n      jump\t// in\n    tag_233:\n        /* \"#utility.yul\":11034:11108   */\n      swap4\n      pop\n        /* \"#utility.yul\":10989:11118   */\n      pop\n        /* \"#utility.yul\":11157:11159   */\n      0x60\n        /* \"#utility.yul\":11183:11247   */\n      tag_234\n        /* \"#utility.yul\":11239:11246   */\n      dup9\n        /* \"#utility.yul\":11230:11236   */\n      dup3\n        /* \"#utility.yul\":11219:11228   */\n      dup10\n        /* \"#utility.yul\":11215:11237   */\n      add\n        /* \"#utility.yul\":11183:11247   */\n      tag_123\n      jump\t// in\n    tag_234:\n        /* \"#utility.yul\":11173:11247   */\n      swap3\n      pop\n        /* \"#utility.yul\":11128:11257   */\n      pop\n        /* \"#utility.yul\":11296:11299   */\n      0x80\n        /* \"#utility.yul\":11323:11386   */\n      tag_235\n        /* \"#utility.yul\":11378:11385   */\n      dup9\n        /* \"#utility.yul\":11369:11375   */\n      dup3\n        /* \"#utility.yul\":11358:11367   */\n      dup10\n        /* \"#utility.yul\":11354:11376   */\n      add\n        /* \"#utility.yul\":11323:11386   */\n      tag_120\n      jump\t// in\n    tag_235:\n        /* \"#utility.yul\":11313:11386   */\n      swap2\n      pop\n        /* \"#utility.yul\":11267:11396   */\n      pop\n        /* \"#utility.yul\":10432:11403   */\n      swap3\n      swap6\n      pop\n      swap3\n      swap6\n      swap1\n      swap4\n      pop\n      jump\t// out\n        /* \"#utility.yul\":11409:11580   */\n    tag_124:\n        /* \"#utility.yul\":11549:11572   */\n      0x50726978206f7261636c6520696e76616c6964652e0000000000000000000000\n        /* \"#utility.yul\":11545:11546   */\n      0x00\n        /* \"#utility.yul\":11537:11543   */\n      dup3\n        /* \"#utility.yul\":11533:11547   */\n      add\n        /* \"#utility.yul\":11526:11573   */\n      mstore\n        /* \"#utility.yul\":11409:11580   */\n      pop\n      jump\t// out\n        /* \"#utility.yul\":11586:11952   */\n    tag_125:\n        /* \"#utility.yul\":11728:11731   */\n      0x00\n        /* \"#utility.yul\":11749:11816   */\n      tag_238\n        /* \"#utility.yul\":11813:11815   */\n      0x15\n        /* \"#utility.yul\":11808:11811   */\n      dup4\n        /* \"#utility.yul\":11749:11816   */\n      tag_102\n      jump\t// in\n    tag_238:\n        /* \"#utility.yul\":11742:11816   */\n      swap2\n      pop\n        /* \"#utility.yul\":11825:11918   */\n      tag_239\n        /* \"#utility.yul\":11914:11917   */\n      dup3\n        /* \"#utility.yul\":11825:11918   */\n      tag_124\n      jump\t// in\n    tag_239:\n        /* \"#utility.yul\":11943:11945   */\n      0x20\n        /* \"#utility.yul\":11938:11941   */\n      dup3\n        /* \"#utility.yul\":11934:11946   */\n      add\n        /* \"#utility.yul\":11927:11946   */\n      swap1\n      pop\n        /* \"#utility.yul\":11586:11952   */\n      swap2\n      swap1\n      pop\n      jump\t// out\n        /* \"#utility.yul\":11958:12377   */\n    tag_82:\n        /* \"#utility.yul\":12124:12128   */\n      0x00\n        /* \"#utility.yul\":12162:12164   */\n      0x20\n        /* \"#utility.yul\":12151:12160   */\n      dup3\n        /* \"#utility.yul\":12147:12165   */\n      add\n        /* \"#utility.yul\":12139:12165   */\n      swap1\n      pop\n        /* \"#utility.yul\":12211:12220   */\n      dup2\n        /* \"#utility.yul\":12205:12209   */\n      dup2\n        /* \"#utility.yul\":12201:12221   */\n      sub\n        /* \"#utility.yul\":12197:12198   */\n      0x00\n        /* \"#utility.yul\":12186:12195   */\n      dup4\n        /* \"#utility.yul\":12182:12199   */\n      add\n        /* \"#utility.yul\":12175:12222   */\n      mstore\n        /* \"#utility.yul\":12239:12370   */\n      tag_241\n        /* \"#utility.yul\":12365:12369   */\n      dup2\n        /* \"#utility.yul\":12239:12370   */\n      tag_125\n      jump\t// in\n    tag_241:\n        /* \"#utility.yul\":12231:12370   */\n      swap1\n      pop\n        /* \"#utility.yul\":11958:12377   */\n      swap2\n      swap1\n      pop\n      jump\t// out\n        /* \"#utility.yul\":12383:12563   */\n    tag_126:\n        /* \"#utility.yul\":12431:12508   */\n      0x4e487b7100000000000000000000000000000000000000000000000000000000\n        /* \"#utility.yul\":12428:12429   */\n      0x00\n        /* \"#utility.yul\":12421:12509   */\n      mstore\n        /* \"#utility.yul\":12528:12532   */\n      0x11\n        /* \"#utility.yul\":12525:12526   */\n      0x04\n        /* \"#utility.yul\":12518:12533   */\n      mstore\n        /* \"#utility.yul\":12552:12556   */\n      0x24\n        /* \"#utility.yul\":12549:12550   */\n      0x00\n        /* \"#utility.yul\":12542:12557   */\n      revert\n        /* \"#utility.yul\":12569:12979   */\n    tag_84:\n        /* \"#utility.yul\":12609:12616   */\n      0x00\n        /* \"#utility.yul\":12632:12652   */\n      tag_244\n        /* \"#utility.yul\":12650:12651   */\n      dup3\n        /* \"#utility.yul\":12632:12652   */\n      tag_87\n      jump\t// in\n    tag_244:\n        /* \"#utility.yul\":12627:12652   */\n      swap2\n      pop\n        /* \"#utility.yul\":12666:12686   */\n      tag_245\n        /* \"#utility.yul\":12684:12685   */\n      dup4\n        /* \"#utility.yul\":12666:12686   */\n      tag_87\n      jump\t// in\n    tag_245:\n        /* \"#utility.yul\":12661:12686   */\n      swap3\n      pop\n        /* \"#utility.yul\":12721:12722   */\n      dup3\n        /* \"#utility.yul\":12718:12719   */\n      dup3\n        /* \"#utility.yul\":12714:12723   */\n      mul\n        /* \"#utility.yul\":12743:12773   */\n      tag_246\n        /* \"#utility.yul\":12761:12772   */\n      dup2\n        /* \"#utility.yul\":12743:12773   */\n      tag_87\n      jump\t// in\n    tag_246:\n        /* \"#utility.yul\":12732:12773   */\n      swap2\n      pop\n        /* \"#utility.yul\":12922:12923   */\n      dup3\n        /* \"#utility.yul\":12913:12920   */\n      dup3\n        /* \"#utility.yul\":12909:12924   */\n      div\n        /* \"#utility.yul\":12906:12907   */\n      dup5\n        /* \"#utility.yul\":12903:12925   */\n      eq\n        /* \"#utility.yul\":12883:12884   */\n      dup4\n        /* \"#utility.yul\":12876:12885   */\n      iszero\n        /* \"#utility.yul\":12856:12939   */\n      or\n        /* \"#utility.yul\":12833:12972   */\n      tag_247\n      jumpi\n        /* \"#utility.yul\":12952:12970   */\n      tag_248\n      tag_126\n      jump\t// in\n    tag_248:\n        /* \"#utility.yul\":12833:12972   */\n    tag_247:\n        /* \"#utility.yul\":12617:12979   */\n      pop\n        /* \"#utility.yul\":12569:12979   */\n      swap3\n      swap2\n      pop\n      pop\n      jump\t// out\n        /* \"#utility.yul\":12985:13165   */\n    tag_127:\n        /* \"#utility.yul\":13033:13110   */\n      0x4e487b7100000000000000000000000000000000000000000000000000000000\n        /* \"#utility.yul\":13030:13031   */\n      0x00\n        /* \"#utility.yul\":13023:13111   */\n      mstore\n        /* \"#utility.yul\":13130:13134   */\n      0x12\n        /* \"#utility.yul\":13127:13128   */\n      0x04\n        /* \"#utility.yul\":13120:13135   */\n      mstore\n        /* \"#utility.yul\":13154:13158   */\n      0x24\n        /* \"#utility.yul\":13151:13152   */\n      0x00\n        /* \"#utility.yul\":13144:13159   */\n      revert\n        /* \"#utility.yul\":13171:13356   */\n    tag_86:\n        /* \"#utility.yul\":13211:13212   */\n      0x00\n        /* \"#utility.yul\":13228:13248   */\n      tag_251\n        /* \"#utility.yul\":13246:13247   */\n      dup3\n        /* \"#utility.yul\":13228:13248   */\n      tag_87\n      jump\t// in\n    tag_251:\n        /* \"#utility.yul\":13223:13248   */\n      swap2\n      pop\n        /* \"#utility.yul\":13262:13282   */\n      tag_252\n        /* \"#utility.yul\":13280:13281   */\n      dup4\n        /* \"#utility.yul\":13262:13282   */\n      tag_87\n      jump\t// in\n    tag_252:\n        /* \"#utility.yul\":13257:13282   */\n      swap3\n      pop\n        /* \"#utility.yul\":13301:13302   */\n      dup3\n        /* \"#utility.yul\":13291:13326   */\n      tag_253\n      jumpi\n        /* \"#utility.yul\":13306:13324   */\n      tag_254\n      tag_127\n      jump\t// in\n    tag_254:\n        /* \"#utility.yul\":13291:13326   */\n    tag_253:\n        /* \"#utility.yul\":13348:13349   */\n      dup3\n        /* \"#utility.yul\":13345:13346   */\n      dup3\n        /* \"#utility.yul\":13341:13350   */\n      div\n        /* \"#utility.yul\":13336:13350   */\n      swap1\n      pop\n        /* \"#utility.yul\":13171:13356   */\n      swap3\n      swap2\n      pop\n      pop\n      jump\t// out\n\n    auxdata: 0xa26469706673582212203b60da05bd6e0e611d261a5d91b8673a127cf886c324efccf575e0443571622d64736f6c63430008220033\n}\n",
				"bytecode": {
					"linkReferences": {},
					"object": "6080604052348015600e575f5ffd5b503360015f6101000a81548173ffffffffffffffffffffffffffffffffffffffff021916908373ffffffffffffffffffffffffffffffffffffffff16021790555073694aa1769357215de4fac081bf1f309adc3253065f5f6101000a81548173ffffffffffffffffffffffffffffffffffffffff021916908373ffffffffffffffffffffffffffffffffffffffff160217905550610dc3806100af5f395ff3fe60806040526004361061006f575f3560e01c80638da5cb5b1161004d5780638da5cb5b146100db578063a0a8045e14610105578063ed88c68e1461012f578063ef649249146101395761006f565b806312065fe0146100735780632ccb1b301461009d5780633ccfd60b146100c5575b5f5ffd5b34801561007e575f5ffd5b50610087610163565b60405161009491906106dc565b60405180910390f35b3480156100a8575f5ffd5b506100c360048036038101906100be919061077d565b61016a565b005b3480156100d0575f5ffd5b506100d961036f565b005b3480156100e6575f5ffd5b506100ef610506565b6040516100fc91906107db565b60405180910390f35b348015610110575f5ffd5b5061011961052b565b604051610126919061080c565b60405180910390f35b6101376105c7565b005b348015610144575f5ffd5b5061014d610644565b60405161015a91906106dc565b60405180910390f35b5f47905090565b60015f9054906101000a900473ffffffffffffffffffffffffffffffffffffffff1673ffffffffffffffffffffffffffffffffffffffff163373ffffffffffffffffffffffffffffffffffffffff16146101f9576040517f08c379a00000000000000000000000000000000000000000000000000000000081526004016101f0906108a5565b60405180910390fd5b5f73ffffffffffffffffffffffffffffffffffffffff168273ffffffffffffffffffffffffffffffffffffffff1603610267576040517f08c379a000000000000000000000000000000000000000000000000000000000815260040161025e9061090d565b60405180910390fd5b5f81116102a9576040517f08c379a00000000000000000000000000000000000000000000000000000000081526004016102a09061099b565b60405180910390fd5b478111156102ec576040517f08c379a00000000000000000000000000000000000000000000000000000000081526004016102e390610a29565b60405180910390fd5b8173ffffffffffffffffffffffffffffffffffffffff166108fc8290811502906040515f60405180830381858888f1935050505015801561032f573d5f5f3e3d5ffd5b507fb2e97275e79fa966fb7542763718c9cda606778a7d1140e16b935dd5bf872fc133838360405161036393929190610aa2565b60405180910390a15050565b60015f9054906101000a900473ffffffffffffffffffffffffffffffffffffffff1673ffffffffffffffffffffffffffffffffffffffff163373ffffffffffffffffffffffffffffffffffffffff16146103fe576040517f08c379a00000000000000000000000000000000000000000000000000000000081526004016103f5906108a5565b60405180910390fd5b5f4790505f8111610444576040517f08c379a000000000000000000000000000000000000000000000000000000000815260040161043b90610b21565b60405180910390fd5b60015f9054906101000a900473ffffffffffffffffffffffffffffffffffffffff1673ffffffffffffffffffffffffffffffffffffffff166108fc8290811502906040515f60405180830381858888f193505050501580156104a8573d5f5f3e3d5ffd5b507fb40a033b647769e777eeb1b0f4cc85773e4df8193b8347f4823ad8793b3d1c0660015f9054906101000a900473ffffffffffffffffffffffffffffffffffffffff16826040516104fb929190610b3f565b60405180910390a150565b60015f9054906101000a900473ffffffffffffffffffffffffffffffffffffffff1681565b5f5f5f5f9054906101000a900473ffffffffffffffffffffffffffffffffffffffff1673ffffffffffffffffffffffffffffffffffffffff1663feaf968c6040518163ffffffff1660e01b815260040160a060405180830381865afa158015610596573d5f5f3e3d5ffd5b505050506040513d601f19601f820116820180604052508101906105ba9190610be3565b5050509150508091505090565b5f3411610609576040517f08c379a00000000000000000000000000000000000000000000000000000000081526004016106009061099b565b60405180910390fd5b7f702b21e3fca743bb7a6eb5352c1b2153dbff1dbd42d7a39d7bd0fc2d530f1d6c333460405161063a929190610b3f565b60405180910390a1565b5f5f61064e61052b565b90505f8113610692576040517f08c379a000000000000000000000000000000000000000000000000000000000815260040161068990610ca4565b60405180910390fd5b5f8190505f6a52b7d2dcc80cd2e400000082476106af9190610cef565b6106b99190610d5d565b905080935050505090565b5f819050919050565b6106d6816106c4565b82525050565b5f6020820190506106ef5f8301846106cd565b92915050565b5f5ffd5b5f73ffffffffffffffffffffffffffffffffffffffff82169050919050565b5f610722826106f9565b9050919050565b61073281610718565b811461073c575f5ffd5b50565b5f8135905061074d81610729565b92915050565b61075c816106c4565b8114610766575f5ffd5b50565b5f8135905061077781610753565b92915050565b5f5f60408385031215610793576107926106f5565b5b5f6107a08582860161073f565b92505060206107b185828601610769565b9150509250929050565b5f6107c5826106f9565b9050919050565b6107d5816107bb565b82525050565b5f6020820190506107ee5f8301846107cc565b92915050565b5f819050919050565b610806816107f4565b82525050565b5f60208201905061081f5f8301846107fd565b92915050565b5f82825260208201905092915050565b7f5365756c206c65206372656174657572207065757420656666656374756572205f8201527f636574746520616374696f6e2e00000000000000000000000000000000000000602082015250565b5f61088f602d83610825565b915061089a82610835565b604082019050919050565b5f6020820190508181035f8301526108bc81610883565b9050919050565b7f416472657373652064657374696e61746169726520696e76616c6964652e00005f82015250565b5f6108f7601e83610825565b9150610902826108c3565b602082019050919050565b5f6020820190508181035f830152610924816108eb565b9050919050565b7f4c65206d6f6e74616e7420646f697420657472652073757065726965757220615f8201527f207a65726f2e0000000000000000000000000000000000000000000000000000602082015250565b5f610985602683610825565b91506109908261092b565b604082019050919050565b5f6020820190508181035f8301526109b281610979565b9050919050565b7f466f6e647320696e737566666973616e74732064616e73206c6520636f6e74725f8201527f61742e0000000000000000000000000000000000000000000000000000000000602082015250565b5f610a13602383610825565b9150610a1e826109b9565b604082019050919050565b5f6020820190508181035f830152610a4081610a07565b9050919050565b5f819050919050565b5f610a6a610a65610a60846106f9565b610a47565b6106f9565b9050919050565b5f610a7b82610a50565b9050919050565b5f610a8c82610a71565b9050919050565b610a9c81610a82565b82525050565b5f606082019050610ab55f8301866107cc565b610ac26020830185610a93565b610acf60408301846106cd565b949350505050565b7f4c6520636f6e747261742065737420766964652e0000000000000000000000005f82015250565b5f610b0b601483610825565b9150610b1682610ad7565b602082019050919050565b5f6020820190508181035f830152610b3881610aff565b9050919050565b5f604082019050610b525f8301856107cc565b610b5f60208301846106cd565b9392505050565b5f69ffffffffffffffffffff82169050919050565b610b8481610b66565b8114610b8e575f5ffd5b50565b5f81519050610b9f81610b7b565b92915050565b610bae816107f4565b8114610bb8575f5ffd5b50565b5f81519050610bc981610ba5565b92915050565b5f81519050610bdd81610753565b92915050565b5f5f5f5f5f60a08688031215610bfc57610bfb6106f5565b5b5f610c0988828901610b91565b9550506020610c1a88828901610bbb565b9450506040610c2b88828901610bcf565b9350506060610c3c88828901610bcf565b9250506080610c4d88828901610b91565b9150509295509295909350565b7f50726978206f7261636c6520696e76616c6964652e00000000000000000000005f82015250565b5f610c8e601583610825565b9150610c9982610c5a565b602082019050919050565b5f6020820190508181035f830152610cbb81610c82565b9050919050565b7f4e487b71000000000000000000000000000000000000000000000000000000005f52601160045260245ffd5b5f610cf9826106c4565b9150610d04836106c4565b9250828202610d12816106c4565b91508282048414831517610d2957610d28610cc2565b5b5092915050565b7f4e487b71000000000000000000000000000000000000000000000000000000005f52601260045260245ffd5b5f610d67826106c4565b9150610d72836106c4565b925082610d8257610d81610d30565b5b82820490509291505056fea26469706673582212203b60da05bd6e0e611d261a5d91b8673a127cf886c324efccf575e0443571622d64736f6c63430008220033",
					"opcodes": "PUSH1 0x80 PUSH1 0x40 MSTORE CALLVALUE DUP1 ISZERO PUSH1 0xE JUMPI PUSH0 PUSH0 REVERT JUMPDEST POP CALLER PUSH1 0x1 PUSH0 PUSH2 0x100 EXP DUP2 SLOAD DUP2 PUSH20 0xFFFFFFFFFFFFFFFFFFFFFFFFFFFFFFFFFFFFFFFF MUL NOT AND SWAP1 DUP4 PUSH20 0xFFFFFFFFFFFFFFFFFFFFFFFFFFFFFFFFFFFFFFFF AND MUL OR SWAP1 SSTORE POP PUSH20 0x694AA1769357215DE4FAC081BF1F309ADC325306 PUSH0 PUSH0 PUSH2 0x100 EXP DUP2 SLOAD DUP2 PUSH20 0xFFFFFFFFFFFFFFFFFFFFFFFFFFFFFFFFFFFFFFFF MUL NOT AND SWAP1 DUP4 PUSH20 0xFFFFFFFFFFFFFFFFFFFFFFFFFFFFFFFFFFFFFFFF AND MUL OR SWAP1 SSTORE POP PUSH2 0xDC3 DUP1 PUSH2 0xAF PUSH0 CODECOPY PUSH0 RETURN INVALID PUSH1 0x80 PUSH1 0x40 MSTORE PUSH1 0x4 CALLDATASIZE LT PUSH2 0x6F JUMPI PUSH0 CALLDATALOAD PUSH1 0xE0 SHR DUP1 PUSH4 0x8DA5CB5B GT PUSH2 0x4D JUMPI DUP1 PUSH4 0x8DA5CB5B EQ PUSH2 0xDB JUMPI DUP1 PUSH4 0xA0A8045E EQ PUSH2 0x105 JUMPI DUP1 PUSH4 0xED88C68E EQ PUSH2 0x12F JUMPI DUP1 PUSH4 0xEF649249 EQ PUSH2 0x139 JUMPI PUSH2 0x6F JUMP JUMPDEST DUP1 PUSH4 0x12065FE0 EQ PUSH2 0x73 JUMPI DUP1 PUSH4 0x2CCB1B30 EQ PUSH2 0x9D JUMPI DUP1 PUSH4 0x3CCFD60B EQ PUSH2 0xC5 JUMPI JUMPDEST PUSH0 PUSH0 REVERT JUMPDEST CALLVALUE DUP1 ISZERO PUSH2 0x7E JUMPI PUSH0 PUSH0 REVERT JUMPDEST POP PUSH2 0x87 PUSH2 0x163 JUMP JUMPDEST PUSH1 0x40 MLOAD PUSH2 0x94 SWAP2 SWAP1 PUSH2 0x6DC JUMP JUMPDEST PUSH1 0x40 MLOAD DUP1 SWAP2 SUB SWAP1 RETURN JUMPDEST CALLVALUE DUP1 ISZERO PUSH2 0xA8 JUMPI PUSH0 PUSH0 REVERT JUMPDEST POP PUSH2 0xC3 PUSH1 0x4 DUP1 CALLDATASIZE SUB DUP2 ADD SWAP1 PUSH2 0xBE SWAP2 SWAP1 PUSH2 0x77D JUMP JUMPDEST PUSH2 0x16A JUMP JUMPDEST STOP JUMPDEST CALLVALUE DUP1 ISZERO PUSH2 0xD0 JUMPI PUSH0 PUSH0 REVERT JUMPDEST POP PUSH2 0xD9 PUSH2 0x36F JUMP JUMPDEST STOP JUMPDEST CALLVALUE DUP1 ISZERO PUSH2 0xE6 JUMPI PUSH0 PUSH0 REVERT JUMPDEST POP PUSH2 0xEF PUSH2 0x506 JUMP JUMPDEST PUSH1 0x40 MLOAD PUSH2 0xFC SWAP2 SWAP1 PUSH2 0x7DB JUMP JUMPDEST PUSH1 0x40 MLOAD DUP1 SWAP2 SUB SWAP1 RETURN JUMPDEST CALLVALUE DUP1 ISZERO PUSH2 0x110 JUMPI PUSH0 PUSH0 REVERT JUMPDEST POP PUSH2 0x119 PUSH2 0x52B JUMP JUMPDEST PUSH1 0x40 MLOAD PUSH2 0x126 SWAP2 SWAP1 PUSH2 0x80C JUMP JUMPDEST PUSH1 0x40 MLOAD DUP1 SWAP2 SUB SWAP1 RETURN JUMPDEST PUSH2 0x137 PUSH2 0x5C7 JUMP JUMPDEST STOP JUMPDEST CALLVALUE DUP1 ISZERO PUSH2 0x144 JUMPI PUSH0 PUSH0 REVERT JUMPDEST POP PUSH2 0x14D PUSH2 0x644 JUMP JUMPDEST PUSH1 0x40 MLOAD PUSH2 0x15A SWAP2 SWAP1 PUSH2 0x6DC JUMP JUMPDEST PUSH1 0x40 MLOAD DUP1 SWAP2 SUB SWAP1 RETURN JUMPDEST PUSH0 SELFBALANCE SWAP1 POP SWAP1 JUMP JUMPDEST PUSH1 0x1 PUSH0 SWAP1 SLOAD SWAP1 PUSH2 0x100 EXP SWAP1 DIV PUSH20 0xFFFFFFFFFFFFFFFFFFFFFFFFFFFFFFFFFFFFFFFF AND PUSH20 0xFFFFFFFFFFFFFFFFFFFFFFFFFFFFFFFFFFFFFFFF AND CALLER PUSH20 0xFFFFFFFFFFFFFFFFFFFFFFFFFFFFFFFFFFFFFFFF AND EQ PUSH2 0x1F9 JUMPI PUSH1 0x40 MLOAD PUSH32 0x8C379A000000000000000000000000000000000000000000000000000000000 DUP2 MSTORE PUSH1 0x4 ADD PUSH2 0x1F0 SWAP1 PUSH2 0x8A5 JUMP JUMPDEST PUSH1 0x40 MLOAD DUP1 SWAP2 SUB SWAP1 REVERT JUMPDEST PUSH0 PUSH20 0xFFFFFFFFFFFFFFFFFFFFFFFFFFFFFFFFFFFFFFFF AND DUP3 PUSH20 0xFFFFFFFFFFFFFFFFFFFFFFFFFFFFFFFFFFFFFFFF AND SUB PUSH2 0x267 JUMPI PUSH1 0x40 MLOAD PUSH32 0x8C379A000000000000000000000000000000000000000000000000000000000 DUP2 MSTORE PUSH1 0x4 ADD PUSH2 0x25E SWAP1 PUSH2 0x90D JUMP JUMPDEST PUSH1 0x40 MLOAD DUP1 SWAP2 SUB SWAP1 REVERT JUMPDEST PUSH0 DUP2 GT PUSH2 0x2A9 JUMPI PUSH1 0x40 MLOAD PUSH32 0x8C379A000000000000000000000000000000000000000000000000000000000 DUP2 MSTORE PUSH1 0x4 ADD PUSH2 0x2A0 SWAP1 PUSH2 0x99B JUMP JUMPDEST PUSH1 0x40 MLOAD DUP1 SWAP2 SUB SWAP1 REVERT JUMPDEST SELFBALANCE DUP2 GT ISZERO PUSH2 0x2EC JUMPI PUSH1 0x40 MLOAD PUSH32 0x8C379A000000000000000000000000000000000000000000000000000000000 DUP2 MSTORE PUSH1 0x4 ADD PUSH2 0x2E3 SWAP1 PUSH2 0xA29 JUMP JUMPDEST PUSH1 0x40 MLOAD DUP1 SWAP2 SUB SWAP1 REVERT JUMPDEST DUP2 PUSH20 0xFFFFFFFFFFFFFFFFFFFFFFFFFFFFFFFFFFFFFFFF AND PUSH2 0x8FC DUP3 SWAP1 DUP2 ISZERO MUL SWAP1 PUSH1 0x40 MLOAD PUSH0 PUSH1 0x40 MLOAD DUP1 DUP4 SUB DUP2 DUP6 DUP9 DUP9 CALL SWAP4 POP POP POP POP ISZERO DUP1 ISZERO PUSH2 0x32F JUMPI RETURNDATASIZE PUSH0 PUSH0 RETURNDATACOPY RETURNDATASIZE PUSH0 REVERT JUMPDEST POP PUSH32 0xB2E97275E79FA966FB7542763718C9CDA606778A7D1140E16B935DD5BF872FC1 CALLER DUP4 DUP4 PUSH1 0x40 MLOAD PUSH2 0x363 SWAP4 SWAP3 SWAP2 SWAP1 PUSH2 0xAA2 JUMP JUMPDEST PUSH1 0x40 MLOAD DUP1 SWAP2 SUB SWAP1 LOG1 POP POP JUMP JUMPDEST PUSH1 0x1 PUSH0 SWAP1 SLOAD SWAP1 PUSH2 0x100 EXP SWAP1 DIV PUSH20 0xFFFFFFFFFFFFFFFFFFFFFFFFFFFFFFFFFFFFFFFF AND PUSH20 0xFFFFFFFFFFFFFFFFFFFFFFFFFFFFFFFFFFFFFFFF AND CALLER PUSH20 0xFFFFFFFFFFFFFFFFFFFFFFFFFFFFFFFFFFFFFFFF AND EQ PUSH2 0x3FE JUMPI PUSH1 0x40 MLOAD PUSH32 0x8C379A000000000000000000000000000000000000000000000000000000000 DUP2 MSTORE PUSH1 0x4 ADD PUSH2 0x3F5 SWAP1 PUSH2 0x8A5 JUMP JUMPDEST PUSH1 0x40 MLOAD DUP1 SWAP2 SUB SWAP1 REVERT JUMPDEST PUSH0 SELFBALANCE SWAP1 POP PUSH0 DUP2 GT PUSH2 0x444 JUMPI PUSH1 0x40 MLOAD PUSH32 0x8C379A000000000000000000000000000000000000000000000000000000000 DUP2 MSTORE PUSH1 0x4 ADD PUSH2 0x43B SWAP1 PUSH2 0xB21 JUMP JUMPDEST PUSH1 0x40 MLOAD DUP1 SWAP2 SUB SWAP1 REVERT JUMPDEST PUSH1 0x1 PUSH0 SWAP1 SLOAD SWAP1 PUSH2 0x100 EXP SWAP1 DIV PUSH20 0xFFFFFFFFFFFFFFFFFFFFFFFFFFFFFFFFFFFFFFFF AND PUSH20 0xFFFFFFFFFFFFFFFFFFFFFFFFFFFFFFFFFFFFFFFF AND PUSH2 0x8FC DUP3 SWAP1 DUP2 ISZERO MUL SWAP1 PUSH1 0x40 MLOAD PUSH0 PUSH1 0x40 MLOAD DUP1 DUP4 SUB DUP2 DUP6 DUP9 DUP9 CALL SWAP4 POP POP POP POP ISZERO DUP1 ISZERO PUSH2 0x4A8 JUMPI RETURNDATASIZE PUSH0 PUSH0 RETURNDATACOPY RETURNDATASIZE PUSH0 REVERT JUMPDEST POP PUSH32 0xB40A033B647769E777EEB1B0F4CC85773E4DF8193B8347F4823AD8793B3D1C06 PUSH1 0x1 PUSH0 SWAP1 SLOAD SWAP1 PUSH2 0x100 EXP SWAP1 DIV PUSH20 0xFFFFFFFFFFFFFFFFFFFFFFFFFFFFFFFFFFFFFFFF AND DUP3 PUSH1 0x40 MLOAD PUSH2 0x4FB SWAP3 SWAP2 SWAP1 PUSH2 0xB3F JUMP JUMPDEST PUSH1 0x40 MLOAD DUP1 SWAP2 SUB SWAP1 LOG1 POP JUMP JUMPDEST PUSH1 0x1 PUSH0 SWAP1 SLOAD SWAP1 PUSH2 0x100 EXP SWAP1 DIV PUSH20 0xFFFFFFFFFFFFFFFFFFFFFFFFFFFFFFFFFFFFFFFF AND DUP2 JUMP JUMPDEST PUSH0 PUSH0 PUSH0 PUSH0 SWAP1 SLOAD SWAP1 PUSH2 0x100 EXP SWAP1 DIV PUSH20 0xFFFFFFFFFFFFFFFFFFFFFFFFFFFFFFFFFFFFFFFF AND PUSH20 0xFFFFFFFFFFFFFFFFFFFFFFFFFFFFFFFFFFFFFFFF AND PUSH4 0xFEAF968C PUSH1 0x40 MLOAD DUP2 PUSH4 0xFFFFFFFF AND PUSH1 0xE0 SHL DUP2 MSTORE PUSH1 0x4 ADD PUSH1 0xA0 PUSH1 0x40 MLOAD DUP1 DUP4 SUB DUP2 DUP7 GAS STATICCALL ISZERO DUP1 ISZERO PUSH2 0x596 JUMPI RETURNDATASIZE PUSH0 PUSH0 RETURNDATACOPY RETURNDATASIZE PUSH0 REVERT JUMPDEST POP POP POP POP PUSH1 0x40 MLOAD RETURNDATASIZE PUSH1 0x1F NOT PUSH1 0x1F DUP3 ADD AND DUP3 ADD DUP1 PUSH1 0x40 MSTORE POP DUP2 ADD SWAP1 PUSH2 0x5BA SWAP2 SWAP1 PUSH2 0xBE3 JUMP JUMPDEST POP POP POP SWAP2 POP POP DUP1 SWAP2 POP POP SWAP1 JUMP JUMPDEST PUSH0 CALLVALUE GT PUSH2 0x609 JUMPI PUSH1 0x40 MLOAD PUSH32 0x8C379A000000000000000000000000000000000000000000000000000000000 DUP2 MSTORE PUSH1 0x4 ADD PUSH2 0x600 SWAP1 PUSH2 0x99B JUMP JUMPDEST PUSH1 0x40 MLOAD DUP1 SWAP2 SUB SWAP1 REVERT JUMPDEST PUSH32 0x702B21E3FCA743BB7A6EB5352C1B2153DBFF1DBD42D7A39D7BD0FC2D530F1D6C CALLER CALLVALUE PUSH1 0x40 MLOAD PUSH2 0x63A SWAP3 SWAP2 SWAP1 PUSH2 0xB3F JUMP JUMPDEST PUSH1 0x40 MLOAD DUP1 SWAP2 SUB SWAP1 LOG1 JUMP JUMPDEST PUSH0 PUSH0 PUSH2 0x64E PUSH2 0x52B JUMP JUMPDEST SWAP1 POP PUSH0 DUP2 SGT PUSH2 0x692 JUMPI PUSH1 0x40 MLOAD PUSH32 0x8C379A000000000000000000000000000000000000000000000000000000000 DUP2 MSTORE PUSH1 0x4 ADD PUSH2 0x689 SWAP1 PUSH2 0xCA4 JUMP JUMPDEST PUSH1 0x40 MLOAD DUP1 SWAP2 SUB SWAP1 REVERT JUMPDEST PUSH0 DUP2 SWAP1 POP PUSH0 PUSH11 0x52B7D2DCC80CD2E4000000 DUP3 SELFBALANCE PUSH2 0x6AF SWAP2 SWAP1 PUSH2 0xCEF JUMP JUMPDEST PUSH2 0x6B9 SWAP2 SWAP1 PUSH2 0xD5D JUMP JUMPDEST SWAP1 POP DUP1 SWAP4 POP POP POP POP SWAP1 JUMP JUMPDEST PUSH0 DUP2 SWAP1 POP SWAP2 SWAP1 POP JUMP JUMPDEST PUSH2 0x6D6 DUP2 PUSH2 0x6C4 JUMP JUMPDEST DUP3 MSTORE POP POP JUMP JUMPDEST PUSH0 PUSH1 0x20 DUP3 ADD SWAP1 POP PUSH2 0x6EF PUSH0 DUP4 ADD DUP5 PUSH2 0x6CD JUMP JUMPDEST SWAP3 SWAP2 POP POP JUMP JUMPDEST PUSH0 PUSH0 REVERT JUMPDEST PUSH0 PUSH20 0xFFFFFFFFFFFFFFFFFFFFFFFFFFFFFFFFFFFFFFFF DUP3 AND SWAP1 POP SWAP2 SWAP1 POP JUMP JUMPDEST PUSH0 PUSH2 0x722 DUP3 PUSH2 0x6F9 JUMP JUMPDEST SWAP1 POP SWAP2 SWAP1 POP JUMP JUMPDEST PUSH2 0x732 DUP2 PUSH2 0x718 JUMP JUMPDEST DUP2 EQ PUSH2 0x73C JUMPI PUSH0 PUSH0 REVERT JUMPDEST POP JUMP JUMPDEST PUSH0 DUP2 CALLDATALOAD SWAP1 POP PUSH2 0x74D DUP2 PUSH2 0x729 JUMP JUMPDEST SWAP3 SWAP2 POP POP JUMP JUMPDEST PUSH2 0x75C DUP2 PUSH2 0x6C4 JUMP JUMPDEST DUP2 EQ PUSH2 0x766 JUMPI PUSH0 PUSH0 REVERT JUMPDEST POP JUMP JUMPDEST PUSH0 DUP2 CALLDATALOAD SWAP1 POP PUSH2 0x777 DUP2 PUSH2 0x753 JUMP JUMPDEST SWAP3 SWAP2 POP POP JUMP JUMPDEST PUSH0 PUSH0 PUSH1 0x40 DUP4 DUP6 SUB SLT ISZERO PUSH2 0x793 JUMPI PUSH2 0x792 PUSH2 0x6F5 JUMP JUMPDEST JUMPDEST PUSH0 PUSH2 0x7A0 DUP6 DUP3 DUP7 ADD PUSH2 0x73F JUMP JUMPDEST SWAP3 POP POP PUSH1 0x20 PUSH2 0x7B1 DUP6 DUP3 DUP7 ADD PUSH2 0x769 JUMP JUMPDEST SWAP2 POP POP SWAP3 POP SWAP3 SWAP1 POP JUMP JUMPDEST PUSH0 PUSH2 0x7C5 DUP3 PUSH2 0x6F9 JUMP JUMPDEST SWAP1 POP SWAP2 SWAP1 POP JUMP JUMPDEST PUSH2 0x7D5 DUP2 PUSH2 0x7BB JUMP JUMPDEST DUP3 MSTORE POP POP JUMP JUMPDEST PUSH0 PUSH1 0x20 DUP3 ADD SWAP1 POP PUSH2 0x7EE PUSH0 DUP4 ADD DUP5 PUSH2 0x7CC JUMP JUMPDEST SWAP3 SWAP2 POP POP JUMP JUMPDEST PUSH0 DUP2 SWAP1 POP SWAP2 SWAP1 POP JUMP JUMPDEST PUSH2 0x806 DUP2 PUSH2 0x7F4 JUMP JUMPDEST DUP3 MSTORE POP POP JUMP JUMPDEST PUSH0 PUSH1 0x20 DUP3 ADD SWAP1 POP PUSH2 0x81F PUSH0 DUP4 ADD DUP5 PUSH2 0x7FD JUMP JUMPDEST SWAP3 SWAP2 POP POP JUMP JUMPDEST PUSH0 DUP3 DUP3 MSTORE PUSH1 0x20 DUP3 ADD SWAP1 POP SWAP3 SWAP2 POP POP JUMP JUMPDEST PUSH32 0x5365756C206C6520637265617465757220706575742065666665637475657220 PUSH0 DUP3 ADD MSTORE PUSH32 0x636574746520616374696F6E2E00000000000000000000000000000000000000 PUSH1 0x20 DUP3 ADD MSTORE POP JUMP JUMPDEST PUSH0 PUSH2 0x88F PUSH1 0x2D DUP4 PUSH2 0x825 JUMP JUMPDEST SWAP2 POP PUSH2 0x89A DUP3 PUSH2 0x835 JUMP JUMPDEST PUSH1 0x40 DUP3 ADD SWAP1 POP SWAP2 SWAP1 POP JUMP JUMPDEST PUSH0 PUSH1 0x20 DUP3 ADD SWAP1 POP DUP2 DUP2 SUB PUSH0 DUP4 ADD MSTORE PUSH2 0x8BC DUP2 PUSH2 0x883 JUMP JUMPDEST SWAP1 POP SWAP2 SWAP1 POP JUMP JUMPDEST PUSH32 0x416472657373652064657374696E61746169726520696E76616C6964652E0000 PUSH0 DUP3 ADD MSTORE POP JUMP JUMPDEST PUSH0 PUSH2 0x8F7 PUSH1 0x1E DUP4 PUSH2 0x825 JUMP JUMPDEST SWAP2 POP PUSH2 0x902 DUP3 PUSH2 0x8C3 JUMP JUMPDEST PUSH1 0x20 DUP3 ADD SWAP1 POP SWAP2 SWAP1 POP JUMP JUMPDEST PUSH0 PUSH1 0x20 DUP3 ADD SWAP1 POP DUP2 DUP2 SUB PUSH0 DUP4 ADD MSTORE PUSH2 0x924 DUP2 PUSH2 0x8EB JUMP JUMPDEST SWAP1 POP SWAP2 SWAP1 POP JUMP JUMPDEST PUSH32 0x4C65206D6F6E74616E7420646F69742065747265207375706572696575722061 PUSH0 DUP3 ADD MSTORE PUSH32 0x207A65726F2E0000000000000000000000000000000000000000000000000000 PUSH1 0x20 DUP3 ADD MSTORE POP JUMP JUMPDEST PUSH0 PUSH2 0x985 PUSH1 0x26 DUP4 PUSH2 0x825 JUMP JUMPDEST SWAP2 POP PUSH2 0x990 DUP3 PUSH2 0x92B JUMP JUMPDEST PUSH1 0x40 DUP3 ADD SWAP1 POP SWAP2 SWAP1 POP JUMP JUMPDEST PUSH0 PUSH1 0x20 DUP3 ADD SWAP1 POP DUP2 DUP2 SUB PUSH0 DUP4 ADD MSTORE PUSH2 0x9B2 DUP2 PUSH2 0x979 JUMP JUMPDEST SWAP1 POP SWAP2 SWAP1 POP JUMP JUMPDEST PUSH32 0x466F6E647320696E737566666973616E74732064616E73206C6520636F6E7472 PUSH0 DUP3 ADD MSTORE PUSH32 0x61742E0000000000000000000000000000000000000000000000000000000000 PUSH1 0x20 DUP3 ADD MSTORE POP JUMP JUMPDEST PUSH0 PUSH2 0xA13 PUSH1 0x23 DUP4 PUSH2 0x825 JUMP JUMPDEST SWAP2 POP PUSH2 0xA1E DUP3 PUSH2 0x9B9 JUMP JUMPDEST PUSH1 0x40 DUP3 ADD SWAP1 POP SWAP2 SWAP1 POP JUMP JUMPDEST PUSH0 PUSH1 0x20 DUP3 ADD SWAP1 POP DUP2 DUP2 SUB PUSH0 DUP4 ADD MSTORE PUSH2 0xA40 DUP2 PUSH2 0xA07 JUMP JUMPDEST SWAP1 POP SWAP2 SWAP1 POP JUMP JUMPDEST PUSH0 DUP2 SWAP1 POP SWAP2 SWAP1 POP JUMP JUMPDEST PUSH0 PUSH2 0xA6A PUSH2 0xA65 PUSH2 0xA60 DUP5 PUSH2 0x6F9 JUMP JUMPDEST PUSH2 0xA47 JUMP JUMPDEST PUSH2 0x6F9 JUMP JUMPDEST SWAP1 POP SWAP2 SWAP1 POP JUMP JUMPDEST PUSH0 PUSH2 0xA7B DUP3 PUSH2 0xA50 JUMP JUMPDEST SWAP1 POP SWAP2 SWAP1 POP JUMP JUMPDEST PUSH0 PUSH2 0xA8C DUP3 PUSH2 0xA71 JUMP JUMPDEST SWAP1 POP SWAP2 SWAP1 POP JUMP JUMPDEST PUSH2 0xA9C DUP2 PUSH2 0xA82 JUMP JUMPDEST DUP3 MSTORE POP POP JUMP JUMPDEST PUSH0 PUSH1 0x60 DUP3 ADD SWAP1 POP PUSH2 0xAB5 PUSH0 DUP4 ADD DUP7 PUSH2 0x7CC JUMP JUMPDEST PUSH2 0xAC2 PUSH1 0x20 DUP4 ADD DUP6 PUSH2 0xA93 JUMP JUMPDEST PUSH2 0xACF PUSH1 0x40 DUP4 ADD DUP5 PUSH2 0x6CD JUMP JUMPDEST SWAP5 SWAP4 POP POP POP POP JUMP JUMPDEST PUSH32 0x4C6520636F6E747261742065737420766964652E000000000000000000000000 PUSH0 DUP3 ADD MSTORE POP JUMP JUMPDEST PUSH0 PUSH2 0xB0B PUSH1 0x14 DUP4 PUSH2 0x825 JUMP JUMPDEST SWAP2 POP PUSH2 0xB16 DUP3 PUSH2 0xAD7 JUMP JUMPDEST PUSH1 0x20 DUP3 ADD SWAP1 POP SWAP2 SWAP1 POP JUMP JUMPDEST PUSH0 PUSH1 0x20 DUP3 ADD SWAP1 POP DUP2 DUP2 SUB PUSH0 DUP4 ADD MSTORE PUSH2 0xB38 DUP2 PUSH2 0xAFF JUMP JUMPDEST SWAP1 POP SWAP2 SWAP1 POP JUMP JUMPDEST PUSH0 PUSH1 0x40 DUP3 ADD SWAP1 POP PUSH2 0xB52 PUSH0 DUP4 ADD DUP6 PUSH2 0x7CC JUMP JUMPDEST PUSH2 0xB5F PUSH1 0x20 DUP4 ADD DUP5 PUSH2 0x6CD JUMP JUMPDEST SWAP4 SWAP3 POP POP POP JUMP JUMPDEST PUSH0 PUSH10 0xFFFFFFFFFFFFFFFFFFFF DUP3 AND SWAP1 POP SWAP2 SWAP1 POP JUMP JUMPDEST PUSH2 0xB84 DUP2 PUSH2 0xB66 JUMP JUMPDEST DUP2 EQ PUSH2 0xB8E JUMPI PUSH0 PUSH0 REVERT JUMPDEST POP JUMP JUMPDEST PUSH0 DUP2 MLOAD SWAP1 POP PUSH2 0xB9F DUP2 PUSH2 0xB7B JUMP JUMPDEST SWAP3 SWAP2 POP POP JUMP JUMPDEST PUSH2 0xBAE DUP2 PUSH2 0x7F4 JUMP JUMPDEST DUP2 EQ PUSH2 0xBB8 JUMPI PUSH0 PUSH0 REVERT JUMPDEST POP JUMP JUMPDEST PUSH0 DUP2 MLOAD SWAP1 POP PUSH2 0xBC9 DUP2 PUSH2 0xBA5 JUMP JUMPDEST SWAP3 SWAP2 POP POP JUMP JUMPDEST PUSH0 DUP2 MLOAD SWAP1 POP PUSH2 0xBDD DUP2 PUSH2 0x753 JUMP JUMPDEST SWAP3 SWAP2 POP POP JUMP JUMPDEST PUSH0 PUSH0 PUSH0 PUSH0 PUSH0 PUSH1 0xA0 DUP7 DUP9 SUB SLT ISZERO PUSH2 0xBFC JUMPI PUSH2 0xBFB PUSH2 0x6F5 JUMP JUMPDEST JUMPDEST PUSH0 PUSH2 0xC09 DUP9 DUP3 DUP10 ADD PUSH2 0xB91 JUMP JUMPDEST SWAP6 POP POP PUSH1 0x20 PUSH2 0xC1A DUP9 DUP3 DUP10 ADD PUSH2 0xBBB JUMP JUMPDEST SWAP5 POP POP PUSH1 0x40 PUSH2 0xC2B DUP9 DUP3 DUP10 ADD PUSH2 0xBCF JUMP JUMPDEST SWAP4 POP POP PUSH1 0x60 PUSH2 0xC3C DUP9 DUP3 DUP10 ADD PUSH2 0xBCF JUMP JUMPDEST SWAP3 POP POP PUSH1 0x80 PUSH2 0xC4D DUP9 DUP3 DUP10 ADD PUSH2 0xB91 JUMP JUMPDEST SWAP2 POP POP SWAP3 SWAP6 POP SWAP3 SWAP6 SWAP1 SWAP4 POP JUMP JUMPDEST PUSH32 0x50726978206F7261636C6520696E76616C6964652E0000000000000000000000 PUSH0 DUP3 ADD MSTORE POP JUMP JUMPDEST PUSH0 PUSH2 0xC8E PUSH1 0x15 DUP4 PUSH2 0x825 JUMP JUMPDEST SWAP2 POP PUSH2 0xC99 DUP3 PUSH2 0xC5A JUMP JUMPDEST PUSH1 0x20 DUP3 ADD SWAP1 POP SWAP2 SWAP1 POP JUMP JUMPDEST PUSH0 PUSH1 0x20 DUP3 ADD SWAP1 POP DUP2 DUP2 SUB PUSH0 DUP4 ADD MSTORE PUSH2 0xCBB DUP2 PUSH2 0xC82 JUMP JUMPDEST SWAP1 POP SWAP2 SWAP1 POP JUMP JUMPDEST PUSH32 0x4E487B7100000000000000000000000000000000000000000000000000000000 PUSH0 MSTORE PUSH1 0x11 PUSH1 0x4 MSTORE PUSH1 0x24 PUSH0 REVERT JUMPDEST PUSH0 PUSH2 0xCF9 DUP3 PUSH2 0x6C4 JUMP JUMPDEST SWAP2 POP PUSH2 0xD04 DUP4 PUSH2 0x6C4 JUMP JUMPDEST SWAP3 POP DUP3 DUP3 MUL PUSH2 0xD12 DUP2 PUSH2 0x6C4 JUMP JUMPDEST SWAP2 POP DUP3 DUP3 DIV DUP5 EQ DUP4 ISZERO OR PUSH2 0xD29 JUMPI PUSH2 0xD28 PUSH2 0xCC2 JUMP JUMPDEST JUMPDEST POP SWAP3 SWAP2 POP POP JUMP JUMPDEST PUSH32 0x4E487B7100000000000000000000000000000000000000000000000000000000 PUSH0 MSTORE PUSH1 0x12 PUSH1 0x4 MSTORE PUSH1 0x24 PUSH0 REVERT JUMPDEST PUSH0 PUSH2 0xD67 DUP3 PUSH2 0x6C4 JUMP JUMPDEST SWAP2 POP PUSH2 0xD72 DUP4 PUSH2 0x6C4 JUMP JUMPDEST SWAP3 POP DUP3 PUSH2 0xD82 JUMPI PUSH2 0xD81 PUSH2 0xD30 JUMP JUMPDEST JUMPDEST DUP3 DUP3 DIV SWAP1 POP SWAP3 SWAP2 POP POP JUMP INVALID LOG2 PUSH5 0x6970667358 0x22 SLT KECCAK256 EXTCODESIZE PUSH1 0xDA SDIV 0xBD PUSH15 0xE611D261A5D91B8673A127CF886C3 0x24 0xEF 0xCC CREATE2 PUSH22 0xE0443571622D64736F6C634300082200330000000000 "
				},
				"gasEstimates": {
					"creation": {
						"codeDepositCost": "704600",
						"executionCost": "49269",
						"totalCost": "753869"
					},
					"external": {
						"donate()": "1776",
						"getBalance()": "335",
						"getBalanceInUSD()": "infinite",
						"getEthUsdPrice()": "infinite",
						"owner()": "2508",
						"transferTo(address,uint256)": "infinite",
						"withdraw()": "infinite"
					}
				},
				"methodIdentifiers": {
					"donate()": "ed88c68e",
					"getBalance()": "12065fe0",
					"getBalanceInUSD()": "ef649249",
					"getEthUsdPrice()": "a0a8045e",
					"owner()": "8da5cb5b",
					"transferTo(address,uint256)": "2ccb1b30",
					"withdraw()": "3ccfd60b"
				}
			},
			"storageLayout": {
				"storage": [
					{
						"astId": 52,
						"contract": "contracts/Donation.sol:Donation",
						"label": "dataFeed",
						"offset": 0,
						"slot": "0",
						"type": "t_contract(AggregatorV3Interface)45"
					},
					{
						"astId": 54,
						"contract": "contracts/Donation.sol:Donation",
						"label": "owner",
						"offset": 0,
						"slot": "1",
						"type": "t_address"
					}
				],
				"types": {
					"t_address": {
						"encoding": "inplace",
						"label": "address",
						"numberOfBytes": "20"
					},
					"t_contract(AggregatorV3Interface)45": {
						"encoding": "inplace",
						"label": "contract AggregatorV3Interface",
						"numberOfBytes": "20"
					}
				}
			},
			"userdoc": {
				"kind": "user",
				"methods": {},
				"version": 1
			}
		}
	}
}